:020000040800F2
:100000000050002069090008AF090008B109000884
:10001000B3090008B5090008B7090008000000008E
:10002000000000000000000000000000B909000806
:10003000BB09000800000000BD090008BF09000856
:10004000C3090008C5090008C7090008C909000854
:10005000CB090008CD090008CF090008D109000824
:10006000D3090008D5090008D7090008D9090008F4
:10007000DB090008DD090008DF090008E1090008C4
:10008000E3090008E5090008E7090008E909000894
:10009000EB090008ED090008EF090008F109000864
:1000A000F3090008F5090008F7090008F909000834
:1000B000FB090008FD090008FF090008010A000803
:1000C000030A0008050A0008070A0008090A0008D0
:1000D0000B0A00080D0A00080F0A0008110A0008A0
:1000E000130A0008150A0008170A000810B5054C85
:1000F000237833B9044B13B10448AFF300800123D4
:10010000237010BD6800002000000000EC0B000808
:10011000084B10B51BB108490848AFF300800848E8
:10012000036803B910BD074B002BFBD0BDE810409E
:10013000184700BF000000006C000020EC0B000816
:100140006800002000000000154B002B08BF134B77
:100150009D46A3F5803A00218B460F461348144A6A
:10016000121A00F019FD0F4B002B00D098470E4BD0
:10017000002B00D098470020002104000D000D48FE
:10018000002802D00C48AFF3008000F0DFFC200014
:10019000290000F07DFB00F0C5FC00BF0000080056
:1001A0000050002000000000000000006800002057
:1001B0008D0000200000000000000000CB782DE939
:1001C000F04103F00F06DB0648BF8B780C8848BF70
:1001D0001E4314F0FF0F26D00568002301274FF0BF
:1001E0000F0803E00133082B1BD00C8807FA03F239
:1001F00032EA0404F6D19C0091F803E008FA04FC0A
:1002000025EA0C0506FA04F4BEF1280F45EA0405B8
:1002100038D0BEF1480F03F1010308BF0261082B7B
:10022000E3D105600C88FF2C2AD9456800230127FB
:100230004FF00F0C03E00133082B20D00C8803F1A2
:10024000080207FA02F232EA0404F4D191F803E05A
:100250009C00BEF1280F04BF426191F803E00CFA44
:1002600004F8BEF1480F03F1010325EA080506FA78
:1002700004F408BF0261082B45EA0405DED145609D
:10028000BDE8F0814261ADE78368194214BF0120E7
:1002900000207047016170474161704729B9054AE4
:1002A000936923EA000090617047024B9A691043FA
:1002B000986170470010024029B9054AD36923EAC2
:1002C0000000D0617047024BDA691043D861704773
:1002D00000100240254A038890429BB212D002F5DA
:1002E000006290420ED0B0F1804F0BD0A2F5983250
:1002F000904207D002F58062904203D002F58062FE
:10030000904203D14A8823F070031343184A904265
:1003100024D002F58062904220D0CA8823F4407332
:100320009BB2134303808A88104B82850A889842C7
:1003300002850ED00F4B98420BD003F540639842D4
:1003400007D003F58063984203D003F58063984299
:1003500001D10B7A038601238382704703808B8847
:1003600083850B880385012383827047002C01401D
:100370000010004000340140038829B923F0010334
:100380001B041B0C038070479BB243F001030380E6
:10039000704700BF81847047808C80B2704700BF77
:1003A00000F088B970B506460C46154600F0A2F973
:1003B000304600F0DDF968B185B1013DEDB225446C
:1003C000013C01E0AC4209D014F8010F00F0D0F973
:1003D0000028F7D100F0B0F9002070BD00F0ACF9B2
:1003E000012070BD70B5044682B00E46154600F07F
:1003F00081F9204600F0BCF9A8B1013D002D4FF075
:10040000000407DD012000F0FDF9631C3055DCB26B
:10041000AC42F7DB002000F0F5F9305500F08CF924
:10042000012002B070BD019000F086F9019802B081
:1004300070BD00BF10B40A4C0A4A237802F10800CC
:1004400012F8011F5B0811B163F07F03DBB2824237
:10045000F6D12370012202494E2010BCFFF7A2BF43
:100460008C0000208300002000F0080310B513B3B7
:100470001A4C0123E37100F0040303F0FF0223B3DD
:100480000123A37100F0020303F0FF0223B3012351
:10049000637110F001001CBF012323714FF00103B1
:1004A000A37008BF2071FFF7C5FF0023A370BDE84C
:1004B0001040FFF7BFBF094C03F0FF0200F0040338
:1004C000E27103F0FF02002BDAD100F00203A27107
:1004D00003F0FF02002BDAD16271DAE7840000201A
:1004E0002DE9F041164C012782B04FF0000827712A
:1004F0006771A771E7713E46FFF79CFF454684F898
:100500000080FFF797FF6770FFF794FFA670FFF773
:1005100091FF01220DF107014F20FFF763FFA57046
:10052000FFF788FFA670FFF785FFA570FFF782FF32
:100530009DF807301B07E9D402B0BDE8F08100BF89
:100540008400002070B50446084D0026FFF7C8FF60
:100550002E70FFF76FFF6E70FFF76CFF2009FFF73B
:1005600083FF2046BDE87040FFF77EBF8400002077
:1005700038B5322000F094F8FFF712FF1C4B002131
:1005800003F1080203F8011F93424FF00004F9D170
:10059000184DFFF74FFF2C70FFF74CFF6C70FFF703
:1005A00049FF0320FFF760FF052000F079F80320E2
:1005B000FFF75AFF012000F073F80320FFF754FF04
:1005C000012000F06DF80220FFF74EFF012000F03F
:1005D00067F82820FFF7B6FF0C20FFF7B3FF0E20C7
:1005E000FFF7B0FFBDE838400120FFF7ABBF00BF09
:1005F000830000208400002038B50446094DFFF731
:100600006FFF01232B70FFF715FF00236B70FFF7BF
:1006100011FF2009FFF728FF2046BDE83840FFF70B
:1006200023BF00BF8400002010B50446007828B125
:10063000FFF7E2FF14F8010F0028F9D110BD00BF49
:100640000120FFF77FBF00BFC020FFF77BBF00BFC7
:10065000044B10B9D870FFF7EDBE0122DA70FFF736
:10066000E9BE00BF8400002008B500214FF08040A3
:10067000FFF790FE4FF08040FFF78EFEB0F57A7FD7
:10068000F8D308BD10B5002104464FF08040FFF7B5
:1006900081FE4FF08040FFF77FFEA042F9D310BDEE
:1006A00030B110B50446FFF7DFFF013CFBD110BDB0
:1006B000704700BF10B50E4C82B001210420FFF737
:1006C000EDFD03231422204601A98DF80720ADF883
:1006D00004308DF80630FFF771FD20460121FFF749
:1006E000D9FD20460221FFF7D5FD02B010BD00BFA5
:1006F0000008014010B50F4C02212046FFF7CAFD4B
:100700000320FFF7BFFF20460121FFF7C3FD0320B1
:10071000FFF7B8FF20460121FFF7BEFD0320FFF7DA
:10072000B1FF20460221FFF7B7FDBDE810400320CE
:10073000FFF7A8BF0008014010B50C4C012120466E
:10074000FFF7AAFD0320FFF79DFF20460221FFF7D8
:10075000A1FD0320FFF796FF20460121FFF79AFD38
:10076000BDE810400320FFF78DBF00BF0008014027
:1007700038B50546082418E0FFF78EFD0320FFF783
:1007800081FF02211E48FFF785FD0520FFF77AFF54
:1007900002211B48FFF780FD0220FFF773FF631E55
:1007A0006D0013F0FF04EDB208D015F0800F4FF08C
:1007B00001011348E0D0FFF76DFDDFE7012110488C
:1007C000FFF768FD0320FFF75DFF02210C48FFF7EC
:1007D00061FD0320FFF756FF01210948FFF754FD93
:1007E00004460220FFF74EFF02210548FFF754FDA3
:1007F0000520FFF747FFB4FA84F0400938BD00BF79
:100800000008014070B5012106462048FFF742FD6F
:100810000320FFF737FF082502211C48FFF73AFDA8
:100820000320FFF72FFF640001211848E4B2FFF70F
:100830002BFD08B144F001040220FFF723FF022141
:100840001248FFF729FD0520FFF71CFF6B1E13F070
:10085000FF05E1D101210D48A6B9FFF71BFD0320DB
:10086000FFF710FF02210948FFF714FD0520FFF7ED
:1008700009FF02210548FFF70FFD0520FFF702FFE2
:10088000204670BDFFF708FDE9E700BF0008014002
:1008900070B5012184B01020FFF700FD0121042074
:1008A000FFF7FCFC01210846FFF706FD10264FF478
:1008B0000053694603252848ADF8003001248DF81F
:1008C00003608DF80250FFF779FC694623488DF8E4
:1008D00003608DF80250ADF80040FFF76FFC4FF653
:1008E000FF720DEB0601472321F80C3D4FF08040CD
:1008F0000023ADF80820ADF80630FFF7EBFC2146E9
:100900004FF08040FFF738FDFFF7D4FEFFF730FED1
:10091000FFF796FE2046FFF79BFE1148FFF784FE87
:10092000FFF792FE0F48FFF77FFE4FF400510A4891
:10093000FFF7B0FC4FF4FA74FFF796FE013CFBD1D1
:100940004FF400510448FFF7A7FC4FF4FA74FFF787
:100950008BFE013CFBD1E8E700100140000801409C
:10096000C40B0008D40B00080649074A074B9A42FB
:10097000BEBF51F8040B42F8040BF8E70448804767
:1009800004480047F80B0008000000206800002021
:10099000210A0008490100081F49204A002301E0FC
:1009A00041F8043B9142FBD3FFF772FFFEE7FEE7FD
:1009B000FEE7FEE7FEE7FEE7FEE7FEE7FEE7FEE70F
:1009C000FEE7FEE7FEE7FEE7FEE7FEE7FEE7FEE7FF
:1009D000FEE7FEE7FEE7FEE7FEE7FEE7FEE7FEE7EF
:1009E000FEE7FEE7FEE7FEE7FEE7FEE7FEE7FEE7DF
:1009F000FEE7FEE7FEE7FEE7FEE7FEE7FEE7FEE7CF
:100A0000FEE7FEE7FEE7FEE7FEE7FEE7FEE7FEE7BE
:100A1000FEE7FEE7FEE7FEE7680000208D0000200D
:100A200030B43C4B3C49186882B040F0010018607B
:100A30005D6800202940596019684FF41F0421F0B7
:100A4000847121F48031196019681A4621F48021DB
:100A50001960596821F4FE0159609C600090019072
:100A6000196841F48031196003E0009BB3F5A06F71
:100A700009D0136803F400330193009B0133009302
:100A8000019B002BF1D0234B1B6813F4003318BFDC
:100A900001230193019B012B06D0204B4FF00062F4
:100AA0009A6002B030BC70471D4A1A4B1068194654
:100AB00040F010001060106820F003001060106813
:100AC00040F0020010605A685A605A685A605A68CA
:100AD00042F480625A605A6822F47C125A605A6862
:100AE00042F4E8125A601A6842F080721A600B6889
:100AF000084A9B01FBD51146536823F0030353605A
:100B0000536843F0020353604B6803F00C03082B57
:100B1000FAD1C2E7001002400000FFF800ED00E04B
:100B20000020024008B5074B044613B10021AFF383
:100B30000080054B1868836A03B19847204600F08F
:100B400033F800BF00000000E80B00080E4B70B542
:100B50001E460E4C0025E41AA410A54204D056F8F7
:100B6000253098470135F8E700F020F8084B094C8C
:100B70001E46E41AA4100025A54204D056F82530DC
:100B800098470135F8E770BD600000206000002044
:100B9000600000206400002003460244934202D01B
:100BA00003F8011BFAE77047FEE70000F8B500BF45
:100BB000F8BC08BC9E467047F8B500BFF8BC08BC3E
:100BC0009E46704753544D33324631303343385488
:100BD000360000004932433A20504130202D205049
:100BE0004131000043000000000000200000000030
:080BF00058F5FF7F0100000031
:100BF80000000000000000000000000000000000ED
:100C080000000000000000000000000000000000DC
:100C1800E40B0008000000000000000000000000D5
:100C280000000000000000000000000000000000BC
:100C380000000000000000000000000000000000AC
:100C4800000000000000000000000000000000009C
:080C580011010008ED00000885
:0400000508000000EF
:00000001FF
