:020000040800F2
:1000000000500020490500088F05000891050008F0
:1000100093050008950500089705000800000000FA
:10002000000000000000000000000000990500082A
:100030009B050008000000009D0500089F050008C2
:10004000A3050008A5050008A7050008A9050008E4
:10005000AB050008AD050008AF050008B1050008B4
:10006000B3050008B5050008B7050008B905000884
:10007000BB050008BD050008BF050008C105000854
:10008000C3050008C5050008C7050008C905000824
:10009000CB050008CD050008CF050008D1050008F4
:1000A000D3050008D5050008D7050008D9050008C4
:1000B000DB050008DD050008FD040008E105000877
:1000C000E3050008E5050008E7050008E905000864
:1000D000EB050008ED050008EF050008F105000834
:1000E000F3050008F5050008F705000810B5054CF4
:1000F000237833B9044B13B10448AFF300800123D4
:10010000237010BD6800002000000000AC0700084C
:10011000084B10B51BB108490848AFF300800848E8
:10012000036803B910BD074B002BFBD0BDE810409E
:10013000184700BF000000006C000020AC0700085A
:100140006800002000000000154B002B08BF134B77
:100150009D46A3F5803A00218B460F461348144A6A
:10016000121A00F009FB0F4B002B00D098470E4BE2
:10017000002B00D098470020002104000D000D48FE
:10018000002802D00C48AFF3008000F0CFFA200026
:10019000290000F0CFF900F0B5FA00BF0000080018
:1001A0000050002000000000000000006800002057
:1001B00084000020000000000000000040F0BF604C
:1001C000024B40F40030D860704700BF00ED00E003
:1001D000C3785BB9037801215A09164803F01F035D
:1001E000203201FA03F340F82230704730B4124B4A
:1001F0008278D9684478C9430F23C1F30221C1F141
:100200000405CB40AC401340027823431B0102F1AC
:100210006042DBB202F5614282F8003303780122CA
:1002200003F01F0003495B09824041F8232030BCE2
:10023000704700BF00E100E000ED00E0CB782DE961
:10024000F04103F00F06DB0648BF8B780C8848BFEF
:100250001E4314F0FF0F26D00568002301274FF03E
:100260000F0803E00133082B1BD00C8807FA03F2B8
:1002700032EA0404F6D19C0091F803E008FA04FC89
:1002800025EA0C0506FA04F4BEF1280F45EA040538
:1002900038D0BEF1480F03F1010308BF0261082BFB
:1002A000E3D105600C88FF2C2AD94568002301277B
:1002B0004FF00F0C03E00133082B20D00C8803F122
:1002C000080207FA02F232EA0404F4D191F803E0DA
:1002D0009C00BEF1280F04BF426191F803E00CFAC4
:1002E00004F8BEF1480F03F1010325EA080506FAF8
:1002F00004F408BF0261082B45EA0405DED145601D
:10030000BDE8F0814261ADE78368194214BF012066
:10031000002070470AB9416170470161704700BF12
:1003200029B9054A936923EA000090617047024B9E
:100330009A691043986170470010024029B9054A34
:10034000D36923EA0000D0617047024BDA69104399
:10035000D861704700100240254A038890429BB242
:1003600012D002F5006290420ED0B0F1804F0BD057
:10037000A2F59832904207D002F58062904203D0F5
:1003800002F58062904203D14A8823F07003134340
:10039000184A904224D002F58062904220D0CA8848
:1003A00023F440739BB2134303808A88104B8285E9
:1003B0000A88984202850ED00F4B98420BD003F565
:1003C0004063984207D003F58063984203D003F559
:1003D0008063984201D10B7A0386012383827047A0
:1003E00003808B8883850B88038501238382704774
:1003F000002C01400010004000340140038829B95E
:1004000023F001031B041B0C038070479BB243F0D5
:1004100001030380704700BF83899BB21AB923EAA6
:10042000010181817047194381817047FFF7F4BF53
:10043000038A828911EA030092B203D0114214BFE9
:1004400001200020704700BFC94389B20182704774
:1004500010B5012182B00820FFF762FF04220323B8
:1004600010240DEB020105488DF80740ADF804207B
:100470008DF80630FFF7E2FE02B010BD000C01401F
:1004800030B5012185B00420FFF758FF42F20F7507
:1004900041F61F420D4C0023204601A9ADF80A3059
:1004A000ADF806308DF80C30ADF80420ADF80850EA
:1004B000FFF752FF012211462046FFF7B7FF204603
:1004C0000121FFF79BFF05B030BD00BF00080040D1
:1004D00000B54FF4E06083B0FFF770FE02A81E2362
:1004E00000F8043D002201238DF806208DF8073026
:1004F000FFF76EFE03B05DF804FB00BF08B50121F5
:100500000A48FFF795FF00B908BD01210748FFF72A
:100510009BFF04210648FFF7F7FEBDE8084080F086
:100520000102D2B204210248FFF7F4BE00080040E5
:10053000000C014008B500F063F8FFF789FFFFF7F2
:100540009FFFFFF7C5FFFEE70649074A074B9A42A0
:10055000BEBF51F8040B42F8040BF8E7044880478B
:1005600004480047B8070008000000206800002089
:1005700001060008490100081F49204A002301E044
:1005800041F8043B9142FBD3FFF7D4FFFEE7FEE7BF
:10059000FEE7FEE7FEE7FEE7FEE7FEE7FEE7FEE733
:1005A000FEE7FEE7FEE7FEE7FEE7FEE7FEE7FEE723
:1005B000FEE7FEE7FEE7FEE7FEE7FEE7FEE7FEE713
:1005C000FEE7FEE7FEE7FEE7FEE7FEE7FEE7FEE703
:1005D000FEE7FEE7FEE7FEE7FEE7FEE7FEE7FEE7F3
:1005E000FEE7FEE7FEE7FEE7FEE7FEE7FEE7FEE7E3
:1005F000FEE7FEE7FEE7FEE768000020840000203B
:1006000030B43C4B3C49186882B040F0010018609F
:100610005D6800202940596019684FF41F0421F0DB
:10062000847121F48031196019681A4621F48021FF
:100630001960596821F4FE0159609C600090019096
:10064000196841F48031196003E0009BB3F5A06F95
:1006500009D0136803F400330193009B0133009326
:10066000019B002BF1D0234B1B6813F4003318BF00
:1006700001230193019B012B06D0204B4FF0006218
:100680009A6002B030BC70471D4A1A4B1068194678
:1006900040F010001060106820F003001060106837
:1006A00040F0020010605A685A605A685A605A68EE
:1006B00042F480625A605A6822F47C125A605A6886
:1006C00042F4E8125A601A6842F080721A600B68AD
:1006D000084A9B01FBD51146536823F0030353607E
:1006E000536843F0020353604B6803F00C03082B7C
:1006F000FAD1C2E7001002400000FFF800ED00E070
:100700000020024008B5074B044613B10021AFF3A7
:100710000080054B1868836A03B19847204600F0B3
:1007200033F800BF00000000A80700080E4B70B5AA
:100730001E460E4C0025E41AA410A54204D056F81B
:10074000253098470135F8E700F020F8084B094CB0
:100750001E46E41AA4100025A54204D056F8253000
:1007600098470135F8E770BD600000206000002068
:10077000600000206400002003460244934202D03F
:1007800003F8011BFAE77047FEE70000F8B500BF69
:10079000F8BC08BC9E467047F8B500BFF8BC08BC62
:1007A0009E4670474300000000000020000000004B
:0807B00098F9FF7F0100000031
:1007B8000000000000000000000000000000000031
:1007C8000000000000000000000000000000000021
:1007D800A40700080000000000000000000000005E
:1007E8000000000000000000000000000000000001
:1007F80000000000000000000000000000000000F1
:1008080000000000000000000000000000000000E0
:0808180011010008ED000008C9
:0400000508000000EF
:00000001FF
