:020000040800F2
:1000000000500020FD0400084305000845050008D5
:1000100047050008490500084B05000800000000DE
:100020000000000000000000000000004D05000876
:100030004F050008000000005105000853050008A6
:1000400057050008590500085B0500085D05000814
:100050005F050008610500086305000865050008E4
:1000600067050008690500086B0500086D050008B4
:100070006F05000871050008730500087505000884
:1000800077050008790500087B0500087D05000854
:100090007F05000881050008830500088505000824
:1000A00087050008890500088B0500088D050008F4
:1000B0008F050008910500089305000895050008C4
:1000C00097050008990500089B0500089D05000894
:1000D0009F050008A1050008A3050008A505000864
:1000E000A7050008A9050008AB05000810B5054CD8
:1000F000237833B9044B13B10448AFF300800123D4
:10010000237010BD68000020000000006007000898
:10011000084B10B51BB108490848AFF300800848E8
:10012000036803B910BD074B002BFBD0BDE810409E
:10013000184700BF000000006C00002060070008A6
:100140006800002000000000154B002B08BF134B77
:100150009D46A3F5803A00218B460F461348144A6A
:10016000121A00F0E3FA0F4B002B00D098470E4B09
:10017000002B00D098470020002104000D000D48FE
:10018000002802D00C48AFF3008000F0A9FA20004C
:10019000290000F05DF900F08FFA00BF00000800B0
:1001A0000050002000000000000000006800002057
:1001B000840000200000000000000000CB782DE942
:1001C000F04103F00F06DB0648BF8B780C8848BF70
:1001D0001E4314F0FF0F26D00568002301274FF0BF
:1001E0000F0803E00133082B1BD00C8807FA03F239
:1001F00032EA0404F6D19C0091F803E008FA04FC0A
:1002000025EA0C0506FA04F4BEF1280F45EA0405B8
:1002100038D0BEF1480F03F1010308BF0261082B7B
:10022000E3D105600C88FF2C2AD9456800230127FB
:100230004FF00F0C03E00133082B20D00C8803F1A2
:10024000080207FA02F232EA0404F4D191F803E05A
:100250009C00BEF1280F04BF426191F803E00CFA44
:1002600004F8BEF1480F03F1010325EA080506FA78
:1002700004F408BF0261082B45EA0405DED145609D
:10028000BDE8F0814261ADE729B9054A936923EAE7
:10029000000090617047024B9A6910439861704763
:1002A0000010024029B9054AD36923EA0000D06151
:1002B0007047024BDA691043D86170470010024062
:1002C000254A038890429BB212D002F50062904208
:1002D0000ED0B0F1804F0BD0A2F59832904207D0EB
:1002E00002F58062904203D002F58062904203D111
:1002F0004A8823F070031343184A904224D002F531
:100300008062904220D0CA8823F440739BB213438A
:1003100003808A88104B82850A88984202850ED015
:100320000F4B98420BD003F54063984207D003F57A
:100330008063984203D003F58063984201D10B7A21
:10034000038601238382704703808B8883850B8813
:100350000385012383827047002C01400010004078
:1003600000340140038CF0B423F480531B041B0CB5
:100370000384028C848822F40052838B0E89120439
:1003800023F4E643120C42EA0632104D1B044F8858
:100390000E881B0C42EA073243EA0623A84292B2B7
:1003A000A4B29BB20BD005F50065A84207D08480AB
:1003B0008383CB88F0BCA0F84030028470478D89DD
:1003C00024F4804444EA8514A4B2F0E7002C0140F0
:1003D000038829B923F001031B041B0C0380704719
:1003E0009BB243F001030380704700BF81847047D4
:1003F000808C80B2704700BF00B5012185B00846EF
:10040000FFF750FF4FF6FF7204A9472321F80C3D78
:100410004FF080400023ADF80820ADF80630FFF71C
:100420004FFF01214FF08040FFF7D2FF05B05DF88C
:1004300004FB00BF08B500214FF08040FFF7D6FF56
:100440004FF08040FFF7D4FFB0F57A7FF8D308BDB6
:1004500070B588B0FFF7D0FF01210820FFF714FF27
:1004600018244FF40072032369462248ADF8002097
:100470008DF802308DF80340FFF7A0FE0121042023
:10048000FFF710FF40F60F622723002401A91A4846
:100490001E46ADF80420ADF80830ADF80640ADF8C2
:1004A0000A40FFF70DFF01211348FFF791FF60227B
:1004B0000123ADF81840ADF81020ADF81230072533
:1004C00004A90D48ADF81650FFF74CFF4FF47A74AD
:1004D000FFF7B0FF013CFBD104A90748ADF8166057
:1004E000FFF740FF4FF47A74FFF7A4FF013CFBD104
:1004F000E6E700BF000C0140000800400649074A3B
:10050000074B9A42BEBF51F8040B42F8040BF8E7C0
:1005100004488047044800476C070008000000209A
:1005200068000020B5050008490100081F49204A5D
:10053000002301E041F8043B9142FBD3FFF788FF21
:10054000FEE7FEE7FEE7FEE7FEE7FEE7FEE7FEE783
:10055000FEE7FEE7FEE7FEE7FEE7FEE7FEE7FEE773
:10056000FEE7FEE7FEE7FEE7FEE7FEE7FEE7FEE763
:10057000FEE7FEE7FEE7FEE7FEE7FEE7FEE7FEE753
:10058000FEE7FEE7FEE7FEE7FEE7FEE7FEE7FEE743
:10059000FEE7FEE7FEE7FEE7FEE7FEE7FEE7FEE733
:1005A000FEE7FEE7FEE7FEE7FEE7FEE76800002065
:1005B0008400002030B43C4B3C49186882B040F0C5
:1005C000010018605D6800202940596019684FF4E7
:1005D0001F0421F0847121F48031196019681A46D2
:1005E00021F480211960596821F4FE0159609C6052
:1005F00000900190196841F48031196003E0009B7C
:10060000B3F5A06F09D0136803F400330193009B86
:1006100001330093019B002BF1D0234B1B6813F493
:10062000003318BF01230193019B012B06D0204BFF
:100630004FF000629A6002B030BC70471D4A1A4BFE
:100640001068194640F010001060106820F0030098
:100650001060106840F0020010605A685A605A68D2
:100660005A605A6842F480625A605A6822F47C12D6
:100670005A605A6842F4E8125A601A6842F080726E
:100680001A600B68084A9B01FBD51146536823F09A
:1006900003035360536843F0020353604B6803F055
:1006A0000C03082BFAD1C2E7001002400000FFF84B
:1006B00000ED00E00020024008B5074B044613B1EE
:1006C0000021AFF30080054B1868836A03B1984797
:1006D000204600F033F800BF000000005C0700086F
:1006E0000E4B70B51E460E4C0025E41AA410A54210
:1006F00004D056F8253098470135F8E700F020F887
:10070000084B094C1E46E41AA4100025A54204D04B
:1007100056F8253098470135F8E770BD6000002095
:1007200060000020600000206400002003460244B6
:10073000934202D003F8011BFAE77047FEE700007E
:10074000F8B500BFF8BC08BC9E467047F8B500BFBE
:10075000F8BC08BC9E467047430000000000002023
:040760000000000095
:08076400E4F9FF7F0100000031
:10076C00000000000000000000000000000000007D
:10077C00000000000000000000000000000000006D
:10078C0058070008000000000000000000000000F6
:10079C00000000000000000000000000000000004D
:1007AC00000000000000000000000000000000003D
:1007BC00000000000000000000000000000000002D
:0807CC0011010008ED00000816
:0400000508000000EF
:00000001FF
