:020000040800F2
:10000000005000202D060008730600087506000841
:1000100077060008790600087B060008000000004B
:100020000000000000000000000000007D06000845
:100030007F0600080000000081060008E9070008AC
:1000400087060008890600088B0600088D06000850
:100050008F06000891060008930600089506000820
:1000600097060008990600089B0600089D060008F0
:100070009F060008A1060008A3060008A5060008C0
:10008000A7060008A9060008AB060008AD06000890
:10009000AF060008B1060008B3060008B506000860
:1000A000B7060008B9060008BB060008BD06000830
:1000B000BF060008C1060008C3060008C506000800
:1000C000C7060008C9060008CB060008CD060008D0
:1000D000CF060008D1060008D3060008D5060008A0
:1000E000D7060008D9060008DB06000810B5054C45
:1000F000237833B9044B13B10448AFF300800123D4
:10010000237010BD9000002000000000D8080008F7
:10011000084B10B51BB108490848AFF300800848E8
:10012000036803B910BD074B002BFBD0BDE810409E
:10013000184700BF0000000094000020D808000805
:100140009000002000000000154B002B08BF134B4F
:100150009D46A3F5803A00218B460F461348144A6A
:10016000121A00F09FFB0F4B002B00D098470E4B4C
:10017000002B00D098470020002104000D000D48FE
:10018000002802D00C48AFF3008000F065FB20008F
:10019000290000F0DFF900F04BFB00BF0000080071
:1001A000005000200000000000000000900000202F
:1001B0002C0100200000000000000000C3785BB9A3
:1001C000037801215A09164803F01F03203201FA6F
:1001D00003F340F82230704730B4124B8278D9686C
:1001E0004478C9430F23C1F30221C1F10405CB4078
:1001F000AC401340027823431B0102F16042DBB2A2
:1002000002F5614282F800330378012203F01F00F7
:1002100003495B09824041F8232030BC704700BF8E
:1002200000E100E000ED00E0CB782DE9F04103F0C3
:100230000F06DB0648BF8B780C8848BF1E4314F0BE
:10024000FF0F26D00568002301274FF00F0803E0B9
:100250000133082B1BD00C8807FA03F232EA04049E
:10026000F6D19C0091F803E008FA04FC25EA0C059D
:1002700006FA04F4BEF1280F45EA040538D0BEF1B1
:10028000480F03F1010308BF0261082BE3D10560A9
:100290000C88FF2C2AD94568002301274FF00F0C4A
:1002A00003E00133082B20D00C8803F1080207FA81
:1002B00002F232EA0404F4D191F803E09C00BEF1AA
:1002C000280F04BF426191F803E00CFA04F8BEF174
:1002D000480F03F1010325EA080506FA04F408BFF4
:1002E0000261082B45EA0405DED14560BDE8F081D6
:1002F0004261ADE70AB9416170470161704700BFD3
:1003000029B9054A936923EA000090617047024BBE
:100310009A691043986170470010024029B9054A54
:10032000D36923EA0000D0617047024BDA691043B9
:10033000D8617047001002404A8830B40C888B881E
:100340002243CC881A430B8922434C898D891A4356
:1003500022430388CC892A43224303F441531343A5
:100360009BB20380838B30BC23F400631B041B0C03
:1003700083830B8A03827047038829B923F04003E3
:100380001B041B0C038070479BB243F040030380A7
:10039000704700BF0123090903FA01F1838889B27C
:1003A0009BB21AB923EA0101818070471943818009
:1003B000704700BF818170470389194214BF012033
:1003C00000207047F8B5104C104D01211D20FFF79B
:1003D00097FF04261023214603272846E370268032
:1003E000A770FFF721FF4FF4005228232146084849
:1003F0002280A770E370FFF717FF31462846BDE85B
:10040000F8400022FFF776BFF0000020000C01400A
:1004100000100140F8B51D4C1D4E012141F20400B1
:10042000FFF76EFFA02503221823214630462580C2
:10043000A270E370FFF7F8FE402204232146304605
:100440002280E3701025FFF7EFFE3046214625801D
:10045000E570FFF7E9FE0F4C0F4B4FF4827000225E
:1004600019469D815880012520464FF4007780264B
:100470005F81DE811A809A80DA801D81FFF75CFF40
:1004800029462046BDE8F840FFF776BFF00000207F
:100490000008014000300140F4000020F8B50121BF
:1004A000284C294E4FF48040FFF738FF01210820E7
:1004B000FFF726FF03254FF48042182321463046DC
:1004C0002280E370A570FFF7AFFE4FF420420423B3
:1004D00021463046A5702280E370FFF7A5FE304626
:1004E0004FF4805210232146A5702280E370FFF75D
:1004F0009BFE164BA6F554464FF400700024194697
:10050000588101258022304608279F81DA811C808E
:100510005C809C80DC801D81FFF70EFF2246304608
:100520006021FFF737FF30462946FFF725FF084BCC
:100530002422DD705C709C701A701846BDE8F8408B
:10054000FFF73CBEF0000020000C0140F40000204A
:100550002801002080B52A4B2A491B682A4AA1FBA2
:1005600003132A489B09013B0721F024002653600E
:1005700080F8234096601160FFF724FFFFF74AFFE1
:10058000FFF78CFF0A2000F037F9DFF89C80204C41
:10059000204D214F012260212048FFF7FBFE0A2059
:1005A00000F02AF9002204211D48FFF7A3FE88F875
:1005B0000060267002211B48FFF7FEFE0028F9D0DC
:1005C00023781848E95CFFF7F5FE23780133DBB2A6
:1005D0001F2B2370EED94FF47A7000F00DF9002232
:1005E00060210E483E70FFF7D5FE012204210C4821
:1005F000FFF780FE4FF47A7000F0FEF8CAE700BF04
:1006000020000020D34D621010E000E000ED00E07B
:10061000AE00002000000020AC00002000380040A8
:10062000000C014000300140AD0000200649074A9F
:10063000074B9A42BEBF51F8040B42F8040BF8E78F
:100640000448804704480047E408000800000020F0
:1006500090000020E5060008490100081F49204AD3
:10066000002301E041F8043B9142FBD3FFF772FF06
:10067000FEE7FEE7FEE7FEE7FEE7FEE7FEE7FEE752
:10068000FEE7FEE7FEE7FEE7FEE7FEE7FEE7FEE742
:10069000FEE7FEE7FEE7FEE7FEE7FEE7FEE7FEE732
:1006A000FEE7FEE7FEE7FEE7FEE7FEE7FEE7FEE722
:1006B000FEE7FEE7FEE7FEE7FEE7FEE7FEE7FEE712
:1006C000FEE7FEE7FEE7FEE7FEE7FEE7FEE7FEE702
:1006D000FEE7FEE7FEE7FEE7FEE7FEE7900000200C
:1006E0002C01002030B43C4B3C49186882B040F0EB
:1006F000010018605D6800202940596019684FF4B6
:100700001F0421F0847121F48031196019681A46A0
:1007100021F480211960596821F4FE0159609C6020
:1007200000900190196841F48031196003E0009B4A
:10073000B3F5A06F09D0136803F400330193009B55
:1007400001330093019B002BF1D0234B1B6813F462
:10075000003318BF01230193019B012B06D0204BCE
:100760004FF000629A6002B030BC70471D4A1A4BCD
:100770001068194640F010001060106820F0030067
:100780001060106840F0020010605A685A605A68A1
:100790005A605A6842F480625A605A6822F47C12A5
:1007A0005A605A6842F4E8125A601A6842F080723D
:1007B0001A600B68084A9B01FBD51146536823F069
:1007C00003035360536843F0020353604B6803F024
:1007D0000C03082BFAD1C2E7001002400000FFF81A
:1007E00000ED00E000200240024A1368013313606C
:1007F000704700BF24000020A0B130B40A4D0B4C5C
:100800002968A368C3EB016101F58C3101F5A07182
:100810002A68A368C3EB0263CB1A002BF8DC01380B
:10082000EED130BC704700BF2400002010E000E093
:1008300008B5074B044613B10021AFF30080054B08
:100840001868836A03B19847204600F033F800BF68
:1008500000000000D40800080E4B70B51E460E4C78
:100860000025E41AA410A54204D056F82530984774
:100870000135F8E700F020F8084B094C1E46E41A51
:10088000A4100025A54204D056F82530984701351C
:10089000F8E770BD88000020880000208800002054
:1008A0008C00002003460244934202D003F8011B4F
:1008B000FAE77047FEE70000F8B500BFF8BC08BCD7
:1008C0009E467047F8B500BFF8BC08BC9E4670470E
:0C08D00043000000280000200000000091
:0808DC006CF8FF7F0100000031
:1008E4000102030405060708090A0B0C0D0E0F107C
:1008F4001112131415161718191A1B1C1D1E1F206C
:1009040000A24A04010000000000000000000000F2
:1009140000000000000000000000000000000000D3
:100924000000000000000000D008000800000000E3
:1009340000000000000000000000000000000000B3
:1009440000000000000000000000000000000000A3
:100954000000000000000000000000000000000093
:10096400000000000000000011010008ED00000874
:0400000508000000EF
:00000001FF
