:020000040800F2
:1000000000500020250600086B0600086D06000859
:100010006F06000871060008730600080000000063
:10002000000000000000000000000000750600084D
:100030007706000800000000790600087B0600082B
:100040007F06000881060008830600088506000870
:1000500087060008890600088B0600088D06000840
:100060008F06000891060008930600089506000810
:1000700097060008990600089B0600089D060008E0
:100080009F060008A1060008A3060008A5060008B0
:10009000A7060008A9060008AB060008AD06000880
:1000A000AF060008B1060008B3060008B506000850
:1000B000B7060008B9060008BB060008BD06000820
:1000C000BF060008C1060008C3060008C5060008F0
:1000D000C7060008C9060008CB060008CD060008C0
:1000E000CF060008D1060008D306000810B5054C5D
:1000F000237833B9044B13B10448AFF300800123D4
:10010000237010BD6800002000000000880800086F
:10011000084B10B51BB108490848AFF300800848E8
:10012000036803B910BD074B002BFBD0BDE810409E
:10013000184700BF000000006C000020880800087D
:100140006800002000000000154B002B08BF134B77
:100150009D46A3F5803A00218B460F461348144A6A
:10016000121A00F077FB0F4B002B00D098470E4B74
:10017000002B00D098470020002104000D000D48FE
:10018000002802D00C48AFF3008000F03DFB2000B7
:10019000290000F03DFA00F023FB00BF000008003A
:1001A0000050002000000000000000006800002057
:1001B000900000200000000000000000CB782DE936
:1001C000F04103F00F06DB0648BF8B780C8848BF70
:1001D0001E4314F0FF0F26D00568002301274FF0BF
:1001E0000F0803E00133082B1BD00C8807FA03F239
:1001F00032EA0404F6D19C0091F803E008FA04FC0A
:1002000025EA0C0506FA04F4BEF1280F45EA0405B8
:1002100038D0BEF1480F03F1010308BF0261082B7B
:10022000E3D105600C88FF2C2AD9456800230127FB
:100230004FF00F0C03E00133082B20D00C8803F1A2
:10024000080207FA02F232EA0404F4D191F803E05A
:100250009C00BEF1280F04BF426191F803E00CFA44
:1002600004F8BEF1480F03F1010325EA080506FA78
:1002700004F408BF0261082B45EA0405DED145609D
:10028000BDE8F0814261ADE70161704741617047AF
:1002900029B9054A936923EA000090617047024B2F
:1002A0009A691043986170470010024029B9054AC5
:1002B000D36923EA0000D0617047024BDA6910432A
:1002C000D8617047001002404A8830B40C888B888F
:1002D0002243CC881A430B8922434C898D891A43C7
:1002E00022430388CC892A43224303F44153134316
:1002F0009BB20380838B30BC23F400631B041B0C74
:1003000083830B8A03827047038829B923F0400353
:100310001B041B0C038070479BB243F04003038017
:10032000704700BF818170470389194214BF0120C3
:1003300000207047254A038890429BB212D002F5F4
:10034000006290420ED0B0F1804F0BD0A2F59832EF
:10035000904207D002F58062904203D002F580629D
:10036000904203D14A8823F070031343184A904205
:1003700024D002F58062904220D0CA8823F44073D2
:100380009BB2134303808A88104B82850A88984267
:1003900002850ED00F4B98420BD003F54063984274
:1003A00007D003F58063984203D003F58063984239
:1003B00001D10B7A038601238382704703808B88E7
:1003C00083850B880385012383827047002C0140BD
:1003D0000010004000340140038829B923F00103D4
:1003E0001B041B0C038070479BB243F00103038086
:1003F000704700BF81847047808C80B2704700BF17
:1004000000B5012185B00846FFF750FF4FF6FF7297
:1004100004A9472321F80C3D4FF080400023ADF89C
:100420000820ADF80630FFF785FF01214FF080402E
:10043000FFF7D2FF05B05DF804FB00BF08B500214F
:100440004FF08040FFF7D6FF4FF08040FFF7D4FF1A
:10045000B0F57A7FF8D308BD2DE9F041304D86B074
:1004600001210820FFF714FF0324102228466946C3
:100470004FF480538DF80320ADF800308DF8024022
:100480004FF01808FFF79AFE694628464FF40053CC
:100490008DF80240ADF800304FF480478DF80380AE
:1004A000FFF78CFE6946284604238DF802408DF83C
:1004B0000330ADF800701B4EFFF780FE4FF4004391
:1004C00069462846ADF800308DF802408DF803806B
:1004D000FFF774FE38460121FFF7E8FE20270023CE
:1004E0004FF40072304601A980254FF48274ADF8B4
:1004F0000C30ADF80A30ADF80830ADF80430ADF886
:100500000E20ADF81070ADF81250ADF80640FFF7B0
:10051000DBFE30460121FFF7F7FE06B0BDE8F081B3
:10052000000C01400038004090B1012812D0022890
:1005300012D0032812D0042812D0052812D0062881
:1005400012D0072812D0082812D0092812D07047DC
:100550007D20704705207047F4207047D5207047F4
:100560008D207047D9207047F920704715207047BB
:10057000FD207047DD2070472049F8B50D1F024669
:100580002F461F4EA6FB0203DB0803EB8300A2EB02
:10059000400080B2FFF7C8FF11F8014D9AB2204326
:1005A0008F420870EED100221346164C2270E95C8F
:1005B000154881F47F4181F0FF01FFF7B3FEFFF79B
:1005C0003DFF23780133DBB2032B2370EFD9802169
:1005D0000D48FFF7A9FE0128F9D04FF480510B48D0
:1005E000FFF752FEFFF72AFF4FF480510748FFF74D
:1005F0004DFEBDE8F840FFF721BF00BF900000208E
:10060000CDCCCCCC8400002000380040000C014050
:1006100008B5FFF7F5FEFFF71FFF41F22E60FFF769
:10062000ABFFFAE70649074A074B9A42BEBF51F8AB
:10063000040B42F8040BF8E70448804704480047DD
:10064000940800080000002068000020DD06000873
:10065000490100081F49204A002301E041F8043BFA
:100660009142FBD3FFF7D4FFFEE7FEE7FEE7FEE78C
:10067000FEE7FEE7FEE7FEE7FEE7FEE7FEE7FEE752
:10068000FEE7FEE7FEE7FEE7FEE7FEE7FEE7FEE742
:10069000FEE7FEE7FEE7FEE7FEE7FEE7FEE7FEE732
:1006A000FEE7FEE7FEE7FEE7FEE7FEE7FEE7FEE722
:1006B000FEE7FEE7FEE7FEE7FEE7FEE7FEE7FEE712
:1006C000FEE7FEE7FEE7FEE7FEE7FEE7FEE7FEE702
:1006D000FEE7FEE7680000209000002030B43C4BAD
:1006E0003C49186882B040F0010018605D68002045
:1006F0002940596019684FF41F0421F0847121F4D6
:100700008031196019681A4621F4802119605968EE
:1007100021F4FE0159609C6000900190196841F439
:100720008031196003E0009BB3F5A06F09D0136816
:1007300003F400330193009B01330093019B002BD2
:10074000F1D0234B1B6813F4003318BF012301932E
:10075000019B012B06D0204B4FF000629A6002B043
:1007600030BC70471D4A1A4B1068194640F0100003
:100770001060106820F003001060106840F0020064
:1007800010605A685A605A685A605A6842F4806227
:100790005A605A6822F47C125A605A6842F4E8128D
:1007A0005A601A6842F080721A600B68084A9B010E
:1007B000FBD51146536823F003035360536843F09D
:1007C000020353604B6803F00C03082BFAD1C2E715
:1007D000001002400000FFF800ED00E000200240A1
:1007E00008B5074B044613B10021AFF30080054B59
:1007F0001868836A03B19847204600F033F800BFB9
:1008000000000000840800080E4B70B51E460E4C18
:100810000025E41AA410A54204D056F825309847C4
:100820000135F8E700F020F8084B094C1E46E41AA1
:10083000A4100025A54204D056F82530984701356C
:10084000F8E770BD6000002060000020600000201C
:100850006400002003460244934202D003F8011BC7
:10086000FAE77047FEE70000F8B500BFF8BC08BC27
:100870009E467047F8B500BFF8BC08BC9E4670475E
:0C08800043000000000000200000000009
:08088C00BCF8FF7F0100000031
:100894000000000000000000000000000000000054
:1008A4000000000000000000000000000000000044
:1008B40080080008000000000000000000000000A4
:1008C4000000000000000000000000000000000024
:1008D4000000000000000000000000000000000014
:1008E4000000000000000000000000000000000004
:0808F40011010008ED000008ED
:0400000508000000EF
:00000001FF
