:020000040800F2
:10000000005000204D0700089307000895070008DE
:1000100097070008990700089B07000800000000E8
:100020000000000000000000000000009D07000824
:100030009F07000800000000A10700081D04000839
:10004000A7070008A9070008AB070008AD070008CC
:10005000AF070008B1070008B3070008B50700089C
:10006000B7070008B9070008BB070008BD0700086C
:10007000BF070008C1070008C3070008C50700083C
:10008000C7070008C9070008CB070008CD0700080C
:10009000CF070008D1070008D3070008D5070008DC
:1000A000D7070008D9070008DB070008DD070008AC
:1000B000DF070008E1070008E3070008E50700087C
:1000C000E7070008E9070008EB070008ED0700084C
:1000D000EF070008F1070008F3070008F50700081C
:1000E000F7070008F9070008FB07000810B5054CE2
:1000F000237833B9044B13B10448AFF300800123D4
:10010000237010BD7400002000000000A40F000840
:10011000084B10B51BB108490848AFF300800848E8
:10012000036803B910BD074B002BFBD0BDE810409E
:10013000184700BF0000000078000020A40F00084E
:100140007400002000000000154B002B08BF134B6B
:100150009D46A3F5803A00218B460F461348144A6A
:10016000121A00F005FF0F4B002B00D098470E4BE2
:10017000002B00D098470020002104000D000D48FE
:10018000002802D00C48AFF3008000F0CBFE200026
:10019000290000F08BFA00F0B1FE00BF000008005B
:1001A000005000200000000000000000740000204B
:1001B000C8000020000000000000000042680B683A
:1001C00022F4702230B422F480720C79134343EA93
:1001D000042343608568CC688A68094B22432B401E
:1001E0004C79134343EA440383600A7CC36A013AAF
:1001F000D2B223F4700343EA0253C36230BC7047A7
:10020000FDF7F1FF836819B923F00103836070479C
:1002100043F0010383607047836843F00803836001
:10022000704700BF8068C0F3C0007047836843F028
:1002300004038360704700BF8068C0F3800070478C
:10024000836819B923F4A0038360704743F4A003C3
:1002500083607047092970B41DD9A1F10A0606EB25
:100260004606C5680724B440B34025EA0404234386
:10027000062AC3601BD90C2A27D90D3A02EB820249
:10028000C36A1F24944001FA02F223EA04010A43DC
:10029000C26270BC704701EB410605690724B44097
:1002A000B34025EA04042343062A0361E3D8013A54
:1002B00002EB8202436B1F24944001FA02F223EA0C
:1002C00004010A43426370BC7047073A02EB8202A2
:1002D000036B1F24944001FA02F223EA04010A434B
:1002E000026370BC704700BFC06C80B2704700BF33
:1002F000054A936818B923F400039360704743F4E8
:1003000000039360704700BF00240140CB782DE9C3
:10031000F04103F00F06DB0648BF8B780C8848BF1E
:100320001E4314F0FF0F26D00568002301274FF06D
:100330000F0803E00133082B1BD00C8807FA03F2E7
:1003400032EA0404F6D19C0091F803E008FA04FCB8
:1003500025EA0C0506FA04F4BEF1280F45EA040567
:1003600038D0BEF1480F03F1010308BF0261082B2A
:10037000E3D105600C88FF2C2AD9456800230127AA
:100380004FF00F0C03E00133082B20D00C8803F151
:10039000080207FA02F232EA0404F4D191F803E009
:1003A0009C00BEF1280F04BF426191F803E00CFAF3
:1003B00004F8BEF1480F03F1010325EA080506FA27
:1003C00004F408BF0261082B45EA0405DED145604C
:1003D000BDE8F0814261ADE701617047416170475E
:1003E0000AB9416170470161704700BF29B9054AE8
:1003F000936923EA000090617047024B9A691043A9
:100400009861704700100240034B6FF07F41072254
:1004100059601A60704700BF10E000E0024A13689C
:1004200001331360704700BF00000020A0B130B45A
:100430000A4D0B4C2968A368C3EB016101F58C31AF
:1004400001F5A0712A68A368C3EB0263CB1A002BE5
:10045000F8DC0138EED130BC704700BF000000204E
:1004600010E000E038B501210820FFF7BFFF074B7F
:100470004FF40075032410221D809C70DA70194619
:10048000BDE838400248FFF741BF00BFC40000206C
:10049000000C014038B501214FF40070FFF7A6FFB2
:1004A00001210420FFF7A2FF1D4B01240025032298
:1004B00019461C489A701C80DD70FFF727FF1A4B05
:1004C0004FF46022194619489A601D601D715C71D5
:1004D000DD601C74FFF772FE22460523294613488F
:1004E000FFF7B8FE21461148FFF78CFE2046FFF7C4
:1004F000FFFE0E48FFF790FE0C48FFF793FE002822
:10050000FAD10A48FFF792FE0848FFF795FE002847
:10051000FAD101210548BDE83840FFF791BE00BF80
:10052000C400002000080140A00000200024014079
:1005300010B5012182B00420FFF758FF0A490B4B88
:100540000B4A09881B8812880B431343102403228B
:1005500001A90848ADF804308DF807408DF8062051
:10056000FFF7D4FE02B010BD0600002008000020F6
:1005700004000020000801402DE9F843DB438046D9
:100580000C4617469DB24FF000090126C9F107023B
:1005900006FA02F2802F02EA0502D2B202BF06FA80
:1005A00009F22A40D2B209484146FFF719FF214615
:1005B0000648FFF711FF09F1010921460348FFF73B
:1005C0000DFFB9F1080FE1D1BDE8F8830008014043
:1005D00090B1012812D0022812D0032812D004288A
:1005E00012D0052812D0062812D0072812D00828C9
:1005F00012D0092812D070477D20704728207047FC
:10060000F4207047F8207047A9207047D920704720
:10061000DD20704768207047FD207047F920704743
:10062000F8B5074C074F084E251D14F8013B8022F2
:1006300039883088FFF7A0FFAC42F6D1F8BD00BF83
:10064000940000200800002006000020134A38B55E
:10065000134D141D85FB0031C317C3EBA10303EB3E
:100660008301A0EB4100FFF7B3FF02F8010BA242A8
:100670001846EFD10B4CFFF7D3FF21880A48FFF74C
:10068000ABFE0120FFF7D2FE21880748FFF7A6FE48
:10069000BDE838400120FFF7C9BE00BF940000202C
:1006A0006766666604000020000801402DE9F843F3
:1006B0001F4DFFF7EFFEA846FFF7D4FEFFF7A4FE9D
:1006C000FFF736FF1B4E1C4F4FF000090A241B4852
:1006D000FFF70AFE00F0CEF903462868194633609A
:1006E00000F018F928600120FFF7A0FE013CEED1D0
:1006F0001349D8F8000000F0C9FAC8F80090386033
:1007000000F0D6FBFFF7A2FF0E49386800F0C6FBE9
:100710004FF4007138B10C48FFF75EFE4FF4FA70E9
:10072000FFF784FED2E70848FFF758FEF6E700BF60
:10073000980000209C000020900000200024014030
:100740000000204100803B45000C01400649074A5B
:10075000074B9A42BEBF51F8040B42F8040BF8E76E
:100760000448804704480047B00F000800000020FC
:100770007400002005080008490100081F49204AAC
:10078000002301E041F8043B9142FBD3FFF78EFFC9
:10079000FEE7FEE7FEE7FEE7FEE7FEE7FEE7FEE731
:1007A000FEE7FEE7FEE7FEE7FEE7FEE7FEE7FEE721
:1007B000FEE7FEE7FEE7FEE7FEE7FEE7FEE7FEE711
:1007C000FEE7FEE7FEE7FEE7FEE7FEE7FEE7FEE701
:1007D000FEE7FEE7FEE7FEE7FEE7FEE7FEE7FEE7F1
:1007E000FEE7FEE7FEE7FEE7FEE7FEE7FEE7FEE7E1
:1007F000FEE7FEE7FEE7FEE7FEE7FEE77400002007
:10080000C800002030B43C4B3C49186882B040F02E
:10081000010018605D6800202940596019684FF494
:100820001F0421F0847121F48031196019681A467F
:1008300021F480211960596821F4FE0159609C60FF
:1008400000900190196841F48031196003E0009B29
:10085000B3F5A06F09D0136803F400330193009B34
:1008600001330093019B002BF1D0234B1B6813F441
:10087000003318BF01230193019B012B06D0204BAD
:100880004FF000629A6002B030BC70471D4A1A4BAC
:100890001068194640F010001060106820F0030046
:1008A0001060106840F0020010605A685A605A6880
:1008B0005A605A6842F480625A605A6822F47C1284
:1008C0005A605A6842F4E8125A601A6842F080721C
:1008D0001A600B68084A9B01FBD51146536823F048
:1008E00003035360536843F0020353604B6803F003
:1008F0000C03082BFAD1C2E7001002400000FFF8F9
:1009000000ED00E00020024080F0004002E000BF67
:1009100081F0004142001FBF5FEA410392EA030FEA
:100920007FEA226C7FEA236C6AD04FEA1262D2EB34
:100930001363C1BFD218414048404140B8BF5B4239
:10094000192B88BF704710F0004F40F4000020F0D2
:100950007F4018BF404211F0004F41F4000121F0E8
:100960007F4118BF494292EA030F3FD0A2F1010232
:1009700041FA03FC10EB0C00C3F1200301FA03F170
:1009800000F0004302D5494260EB4000B0F5000F93
:1009900013D3B0F1807F06D340084FEA310102F152
:1009A0000102FE2A51D2B1F1004F40EBC25008BF04
:1009B00020F0010040EA03007047490040EB0000CE
:1009C00010F4000FA2F10102EDD1B0FA80FCACF1FD
:1009D000080CB2EB0C0200FA0CF0AABF00EBC250FC
:1009E00052421843BCBFD0401843704792F0000FEA
:1009F00081F4000106BF80F400000132013BB5E73D
:100A00004FEA41037FEA226C18BF7FEA236C21D0B2
:100A100092EA030F04D092F0000F08BF0846704717
:100A200090EA010F1CBF0020704712F07F4F04D1E5
:100A3000400028BF40F00040704712F100723CBFF8
:100A400000F50000704700F0004343F0FE4040F422
:100A5000000070477FEA226216BF08467FEA2363E0
:100A60000146420206BF5FEA412390EA010F40F4CB
:100A7000800070474FF0000304E000BF10F0004317
:100A800048BF40425FEA000C08BF704743F09643FE
:100A900001464FF000001CE050EA010208BF704719
:100AA0004FF000030AE000BF50EA010208BF7047A0
:100AB00011F0004302D5404261EB41015FEA010CB5
:100AC00002BF84460146002043F0B64308BFA3F1AD
:100AD0008053A3F50003BCFA8CF2083AA3EBC2538F
:100AE00010DB01FA02FC634400FA02FCC2F12002AE
:100AF000BCF1004F20FA02F243EB020008BF20F0E5
:100B00000100704702F1200201FA02FCC2F120024A
:100B100050EA4C0021FA02F243EB020008BF20EA3F
:100B2000DC7070474FF0FF0C1CEAD0521EBF1CEA6D
:100B3000D15392EA0C0F93EA0C0F6FD01A4480EA5B
:100B4000010C400218BF5FEA41211ED04FF0006344
:100B500043EA501043EA5111A0FB01310CF0004070
:100B6000B1F5000F3EBF490041EAD3715B0040EA96
:100B7000010062F17F02FD2A1DD8B3F1004F40EB66
:100B8000C25008BF20F00100704790F0000F0CF039
:100B9000004C08BF49024CEA502040EA51207F3AFD
:100BA000C2BFD2F1FF0340EAC250704740F40000D8
:100BB0004FF00003013A5DDC12F1190FDCBF00F0C9
:100BC00000407047C2F10002410021FA02F1C2F177
:100BD000200200FA02FC5FEA310040F1000053EA13
:100BE0004C0308BF20EADC70704792F0000F00F061
:100BF000004C02BF400010F4000F013AF9D040EA67
:100C00000C0093F0000F01F0004C02BF490011F4FA
:100C1000000F013BF9D041EA0C018FE70CEAD153F8
:100C200092EA0C0F18BF93EA0C0F0AD030F0004C78
:100C300018BF31F0004CD8D180EA010000F000402C
:100C4000704790F0000F17BF90F0004F084691F0EA
:100C5000000F91F0004F14D092EA0C0F01D1420224
:100C60000FD193EA0C0F03D14B0218BF084608D1ED
:100C700080EA010000F0004040F0FE4040F4000037
:100C8000704740F0FE4040F4400070474FF0FF0CCA
:100C90001CEAD0521EBF1CEAD15392EA0C0F93EA11
:100CA0000C0F69D0A2EB030280EA010C49024FEA63
:100CB000402037D04FF0805343EA111143EA10131C
:100CC0000CF000408B4238BF5B0042F17D024FF4D4
:100CD000000C8B4224BF5B1A40EA0C00B3EB510FAF
:100CE00024BFA3EB510340EA5C00B3EB910F24BF98
:100CF000A3EB910340EA9C00B3EBD10F24BFA3EB1D
:100D0000D10340EADC001B0118BF5FEA1C1CE0D1E4
:100D1000FD2A3FF650AF8B4240EBC25008BF20F097
:100D2000010070470CF0004C4CEA50207F32C2BFEB
:100D3000D2F1FF0340EAC250704740F400004FF088
:100D40000003013A37E792F0000F00F0004C02BFB9
:100D5000400010F4000F013AF9D040EA0C0093F083
:100D6000000F01F0004C02BF490011F4000F013BDD
:100D7000F9D041EA0C0195E70CEAD15392EA0C0F45
:100D800008D142027FF47DAF93EA0C0F7FF470AF7D
:100D9000084676E793EA0C0F04D14B023FF44CAFC0
:100DA00008466EE730F0004C18BF31F0004CCAD155
:100DB00030F000427FF45CAF31F000437FF43CAF91
:100DC0005FE700BF4FF0FF3C06E000BF4FF0010CB3
:100DD00002E000BF4FF0010C4DF804CD4FEA400295
:100DE0004FEA41037FEA226C18BF7FEA236C11D0DF
:100DF00001B052EA530C18BF90EA010F58BFB2EB92
:100E0000030088BFC81738BF6FEAE17018BF40F011
:100E1000010070477FEA226C02D15FEA402C05D1C5
:100E20007FEA236CE4D15FEA412CE1D05DF8040B4A
:100E3000704700BF844608466146FFE70FB5FFF7DD
:100E4000C9FF002848BF10F1000F0FBD4DF808ED95
:100E5000FFF7F4FF0CBF012000205DF808FB00BF86
:100E60004DF808EDFFF7EAFF34BF012000205DF8E0
:100E700008FB00BF4DF808EDFFF7E0FF94BF01202D
:100E800000205DF808FB00BF4DF808EDFFF7D2FF2A
:100E900094BF012000205DF808FB00BF4DF808ED6D
:100EA000FFF7C8FF34BF012000205DF808FB00BF3A
:100EB0004FEA4002B2F1FE4F0FD34FF09E03B3EB67
:100EC00012620DD94FEA002343F0004310F0004FA7
:100ED00023FA02F018BF404270474FF000007047FD
:100EE00012F1610F01D1420205D110F0004008BF9C
:100EF0006FF0004070474FF00000704708B5074B97
:100F0000044613B10021AFF30080054B1868836AD3
:100F100003B19847204600F033F800BF00000000FE
:100F2000A00F00080E4B70B51E460E4C0025E41AAB
:100F3000A410A54204D056F8253098470135F8E7AB
:100F400000F020F8084B094C1E46E41AA4100025B6
:100F5000A54204D056F8253098470135F8E770BD12
:100F60006C0000206C0000206C000020700000204D
:100F700003460244934202D003F8011BFAE770478C
:100F8000FEE70000F8B500BFF8BC08BC9E467047FD
:100F9000F8B500BFF8BC08BC9E467047430000008F
:080FA0000C000020000000001D
:080FA800A0F1FF7F0100000031
:100FB0000100000080002000400000000000000050
:100FC0000000000000000000000000000000000021
:100FD0000000000000000000000000009C0F00085E
:100FE0000000000000000000000000000000000001
:100FF00000000000000000000000000000000000F1
:1010000000000000000000000000000000000000E0
:1010100000000000000000000000000011010008B6
:04102000ED000008D7
:0400000508000000EF
:00000001FF
