:020000040800F2
:10000000005000200D0500085305000855050008A4
:1000100057050008590500085B05000800000000AE
:100020000000000000000000000000005D05000866
:100030005F0500080000000061050008D502000807
:1000400067050008690500086B0500086D050008D4
:100050006F050008710500087305000875050008A4
:1000600077050008790500087B0500087D05000874
:100070007F05000881050008830500088505000844
:1000800087050008890500088B0500088D05000814
:100090008F050008910500089305000895050008E4
:1000A00097050008990500089B0500089D050008B4
:1000B0009F050008A1050008A3050008A505000884
:1000C000A7050008A9050008AB050008AD05000854
:1000D000AF050008B1050008B3050008B505000824
:1000E000B7050008B9050008BB05000810B5054CA8
:1000F000237833B9044B13B10448AFF300800123D4
:10010000237010BD74000020000000002C0C0008BB
:10011000084B10B51BB108490848AFF300800848E8
:10012000036803B910BD074B002BFBD0BDE810409E
:10013000184700BF00000000780000202C0C0008C9
:100140007400002000000000154B002B08BF134B6B
:100150009D46A3F5803A00218B460F461348144A6A
:10016000121A00F049FD0F4B002B00D098470E4BA0
:10017000002B00D098470020002104000D000D48FE
:10018000002802D00C48AFF3008000F00FFD2000E3
:10019000290000F081F900F0F5FC00BF0000080024
:1001A000005000200000000000000000740000204B
:1001B000A00000200000000000000000C06C80B221
:1001C000704700BFCB782DE9F04103F00F06DB0646
:1001D00048BF8B780C8848BF1E4314F0FF0F26D011
:1001E0000568002301274FF00F0803E00133082BB7
:1001F0001BD00C8807FA03F232EA0404F6D19C0003
:1002000091F803E008FA04FC25EA0C0506FA04F468
:10021000BEF1280F45EA040538D0BEF1480F03F1BE
:10022000010308BF0261082BE3D105600C88FF2C95
:100230002AD94568002301274FF00F0C03E0013352
:10024000082B20D00C8803F1080207FA02F232EAE8
:100250000404F4D191F803E09C00BEF1280F04BF20
:10026000426191F803E00CFA04F8BEF1480F03F183
:10027000010325EA080506FA04F408BF0261082B09
:1002800045EA0405DED14560BDE8F0814261ADE795
:1002900001617047416170470AB94161704701616E
:1002A000704700BF29B9054A936923EA00009061AD
:1002B0007047024B9A6910439861704700100240E2
:1002C000034B6FF07F41072259601A60704700BFEF
:1002D00010E000E0024A136801331360704700BF6A
:1002E00000000020A0B130B40A4D0B4C2968A3686F
:1002F000C3EB016101F58C3101F5A0712A68A36897
:10030000C3EB0263CB1A002BF8DC0138EED130BC12
:10031000704700BF0000002010E000E010B5012190
:1003200082B00420FFF7BEFF0A490B4B0B4A098835
:100330001B8812880B4313431024032201A9084889
:10034000ADF804308DF807408DF80620FFF73AFF2E
:1003500002B010BD060000200800002004000020AC
:10036000000801402DE9F843DB4380460C46174660
:100370009DB24FF000090126C9F1070206FA02F208
:10038000802F02EA0502D2B202BF06FA09F22A4021
:10039000D2B209484146FFF77FFF21460648FFF7E2
:1003A00077FF09F1010921460348FFF773FFB9F10F
:1003B000080FE1D1BDE8F8830008014090B10128A1
:1003C00012D0022812D0032812D0042812D00528F7
:1003D00012D0062812D0072812D0082812D00928D7
:1003E00012D070477D20704728207047F420704756
:1003F000F8207047A9207047D9207047DD2070474A
:1004000068207047FD207047F9207047F8B5074C09
:10041000074F084E251D14F8013B8022398830888B
:10042000FFF7A0FFAC42F6D1F8BD00BF940000205A
:100430000800002006000020134A38B5134D141D93
:1004400085FB0031C317C3EBA10303EB8301A0EBD2
:100450004100FFF7B3FF02F8010BA2421846EFD1AB
:100460000B4CFFF7D3FF21880A48FFF711FF01204B
:10047000FFF738FF21880748FFF70CFFBDE8384039
:100480000120FFF72FBF00BF94000020676666665B
:1004900004000020000801402DE9F843164DFFF745
:1004A0000FFF2F46FFF73AFF144EDFF85C904FF036
:1004B00000080A241248FFF781FE00F0BBF903464A
:1004C00028681946336000F005F928600120FFF71D
:1004D00009FF013CEED138680A4900F0B7FAC9F8C3
:1004E000000040F6B830C7F80080FFF7A5FF4FF4D2
:1004F0007A70FFF7F7FEDCE7980000209C000020F0
:100500000024014000002041900000200649074AD5
:10051000074B9A42BEBF51F8040B42F8040BF8E7B0
:100520000448804704480047380C000800000020B9
:1005300074000020C5050008490100081F49204A31
:10054000002301E041F8043B9142FBD3FFF7A4FFF5
:10055000FEE7FEE7FEE7FEE7FEE7FEE7FEE7FEE773
:10056000FEE7FEE7FEE7FEE7FEE7FEE7FEE7FEE763
:10057000FEE7FEE7FEE7FEE7FEE7FEE7FEE7FEE753
:10058000FEE7FEE7FEE7FEE7FEE7FEE7FEE7FEE743
:10059000FEE7FEE7FEE7FEE7FEE7FEE7FEE7FEE733
:1005A000FEE7FEE7FEE7FEE7FEE7FEE7FEE7FEE723
:1005B000FEE7FEE7FEE7FEE7FEE7FEE77400002049
:1005C000A000002030B43C4B3C49186882B040F099
:1005D000010018605D6800202940596019684FF4D7
:1005E0001F0421F0847121F48031196019681A46C2
:1005F00021F480211960596821F4FE0159609C6042
:1006000000900190196841F48031196003E0009B6B
:10061000B3F5A06F09D0136803F400330193009B76
:1006200001330093019B002BF1D0234B1B6813F483
:10063000003318BF01230193019B012B06D0204BEF
:100640004FF000629A6002B030BC70471D4A1A4BEE
:100650001068194640F010001060106820F0030088
:100660001060106840F0020010605A685A605A68C2
:100670005A605A6842F480625A605A6822F47C12C6
:100680005A605A6842F4E8125A601A6842F080725E
:100690001A600B68084A9B01FBD51146536823F08A
:1006A00003035360536843F0020353604B6803F045
:1006B0000C03082BFAD1C2E7001002400000FFF83B
:1006C00000ED00E00020024080F0004002E000BFAA
:1006D00081F0004142001FBF5FEA410392EA030F2D
:1006E0007FEA226C7FEA236C6AD04FEA1262D2EB77
:1006F0001363C1BFD218414048404140B8BF5B427C
:10070000192B88BF704710F0004F40F4000020F014
:100710007F4018BF404211F0004F41F4000121F02A
:100720007F4118BF494292EA030F3FD0A2F1010274
:1007300041FA03FC10EB0C00C3F1200301FA03F1B2
:1007400000F0004302D5494260EB4000B0F5000FD5
:1007500013D3B0F1807F06D340084FEA310102F194
:100760000102FE2A51D2B1F1004F40EBC25008BF46
:1007700020F0010040EA03007047490040EB000010
:1007800010F4000FA2F10102EDD1B0FA80FCACF13F
:10079000080CB2EB0C0200FA0CF0AABF00EBC2503E
:1007A00052421843BCBFD0401843704792F0000F2C
:1007B00081F4000106BF80F400000132013BB5E77F
:1007C0004FEA41037FEA226C18BF7FEA236C21D0F5
:1007D00092EA030F04D092F0000F08BF084670475A
:1007E00090EA010F1CBF0020704712F07F4F04D128
:1007F000400028BF40F00040704712F100723CBF3B
:1008000000F50000704700F0004343F0FE4040F464
:10081000000070477FEA226216BF08467FEA236322
:100820000146420206BF5FEA412390EA010F40F40D
:10083000800070474FF0000304E000BF10F0004359
:1008400048BF40425FEA000C08BF704743F0964340
:1008500001464FF000001CE050EA010208BF70475B
:100860004FF000030AE000BF50EA010208BF7047E2
:1008700011F0004302D5404261EB41015FEA010CF7
:1008800002BF84460146002043F0B64308BFA3F1EF
:100890008053A3F50003BCFA8CF2083AA3EBC253D1
:1008A00010DB01FA02FC634400FA02FCC2F12002F0
:1008B000BCF1004F20FA02F243EB020008BF20F027
:1008C0000100704702F1200201FA02FCC2F120028D
:1008D00050EA4C0021FA02F243EB020008BF20EA82
:1008E000DC7070474FF0FF0C1CEAD0521EBF1CEAB0
:1008F000D15392EA0C0F93EA0C0F6FD01A4480EA9E
:10090000010C400218BF5FEA41211ED04FF0006386
:1009100043EA501043EA5111A0FB01310CF00040B2
:10092000B1F5000F3EBF490041EAD3715B0040EAD8
:10093000010062F17F02FD2A1DD8B3F1004F40EBA8
:10094000C25008BF20F00100704790F0000F0CF07B
:10095000004C08BF49024CEA502040EA51207F3A3F
:10096000C2BFD2F1FF0340EAC250704740F400001A
:100970004FF00003013A5DDC12F1190FDCBF00F00B
:1009800000407047C2F10002410021FA02F1C2F1B9
:10099000200200FA02FC5FEA310040F1000053EA55
:1009A0004C0308BF20EADC70704792F0000F00F0A3
:1009B000004C02BF400010F4000F013AF9D040EAA9
:1009C0000C0093F0000F01F0004C02BF490011F43D
:1009D000000F013BF9D041EA0C018FE70CEAD1533B
:1009E00092EA0C0F18BF93EA0C0F0AD030F0004CBB
:1009F00018BF31F0004CD8D180EA010000F000406F
:100A0000704790F0000F17BF90F0004F084691F02C
:100A1000000F91F0004F14D092EA0C0F01D1420266
:100A20000FD193EA0C0F03D14B0218BF084608D12F
:100A300080EA010000F0004040F0FE4040F4000079
:100A4000704740F0FE4040F4400070474FF0FF0C0C
:100A50001CEAD0521EBF1CEAD15392EA0C0F93EA53
:100A60000C0F69D0A2EB030280EA010C49024FEAA5
:100A7000402037D04FF0805343EA111143EA10135E
:100A80000CF000408B4238BF5B0042F17D024FF416
:100A9000000C8B4224BF5B1A40EA0C00B3EB510FF1
:100AA00024BFA3EB510340EA5C00B3EB910F24BFDA
:100AB000A3EB910340EA9C00B3EBD10F24BFA3EB5F
:100AC000D10340EADC001B0118BF5FEA1C1CE0D127
:100AD000FD2A3FF650AF8B4240EBC25008BF20F0DA
:100AE000010070470CF0004C4CEA50207F32C2BF2E
:100AF000D2F1FF0340EAC250704740F400004FF0CB
:100B00000003013A37E792F0000F00F0004C02BFFB
:100B1000400010F4000F013AF9D040EA0C0093F0C5
:100B2000000F01F0004C02BF490011F4000F013B1F
:100B3000F9D041EA0C0195E70CEAD15392EA0C0F87
:100B400008D142027FF47DAF93EA0C0F7FF470AFBF
:100B5000084676E793EA0C0F04D14B023FF44CAF02
:100B600008466EE730F0004C18BF31F0004CCAD197
:100B700030F000427FF45CAF31F000437FF43CAFD3
:100B80005FE700BF08B5074B044613B10021AFF380
:100B90000080054B1868836A03B19847204600F02F
:100BA00033F800BF00000000280C00080E4B70B5A1
:100BB0001E460E4C0025E41AA410A54204D056F897
:100BC000253098470135F8E700F020F8084B094C2C
:100BD0001E46E41AA4100025A54204D056F825307C
:100BE00098470135F8E770BD6C0000206C000020CC
:100BF0006C0000207000002003460244934202D0A3
:100C000003F8011BFAE77047FEE70000F8B500BFE4
:100C1000F8BC08BC9E467047F8B500BFF8BC08BCDD
:100C20009E467047430000000C00002000000000BA
:080C300018F5FF7F0100000030
:100C380001000000800020004000000000000000CB
:100C4800000000000000000000000000000000009C
:100C5800000000000000000000000000240C000854
:100C6800000000000000000000000000000000007C
:100C7800000000000000000000000000000000006C
:100C8800000000000000000000000000000000005C
:100C98000000000000000000000000001101000832
:040CA800ED00000853
:0400000508000000EF
:00000001FF
