:020000040800F2
:1000000000500020A5040008EB040008ED040008DF
:10001000EF040008F1040008F304000800000000E9
:10002000000000000000000000000000F5040008CF
:10003000F704000800000000F9040008CD020008E1
:10004000FF04000801050008030500080505000875
:1000500007050008090500080B0500080D05000844
:100060000F05000811050008130500081505000814
:1000700017050008190500081B0500081D050008E4
:100080001F050008210500082305000825050008B4
:1000900027050008290500082B0500082D05000884
:1000A0002F05000831050008330500083505000854
:1000B00037050008390500083B0500083D05000824
:1000C0003F050008410500084305000845050008F4
:1000D00047050008490500084B0500084D050008C4
:1000E0004F050008510500085305000810B5054CE0
:1000F000237833B9044B13B10448AFF300800123D4
:10010000237010BD740000200000000008070008E4
:10011000084B10B51BB108490848AFF300800848E8
:10012000036803B910BD074B002BFBD0BDE810409E
:10013000184700BF000000007800002008070008F2
:100140007400002000000000154B002B08BF134B6B
:100150009D46A3F5803A00218B460F461348144A6A
:10016000121A00F0B7FA0F4B002B00D098470E4B35
:10017000002B00D098470020002104000D000D48FE
:10018000002802D00C48AFF3008000F07DFA200078
:10019000290000F07DF900F063FA00BF00000800BC
:1001A000005000200000000000000000740000204B
:1001B0009C0000200000000000000000CB782DE92A
:1001C000F04103F00F06DB0648BF8B780C8848BF70
:1001D0001E4314F0FF0F26D00568002301274FF0BF
:1001E0000F0803E00133082B1BD00C8807FA03F239
:1001F00032EA0404F6D19C0091F803E008FA04FC0A
:1002000025EA0C0506FA04F4BEF1280F45EA0405B8
:1002100038D0BEF1480F03F1010308BF0261082B7B
:10022000E3D105600C88FF2C2AD9456800230127FB
:100230004FF00F0C03E00133082B20D00C8803F1A2
:10024000080207FA02F232EA0404F4D191F803E05A
:100250009C00BEF1280F04BF426191F803E00CFA44
:1002600004F8BEF1480F03F1010325EA080506FA78
:1002700004F408BF0261082B45EA0405DED145609D
:10028000BDE8F0814261ADE70161704741617047AF
:100290000AB9416170470161704700BF29B9054A39
:1002A000936923EA000090617047024B9A691043FA
:1002B0009861704700100240034B6FF07F410722A6
:1002C00059601A60704700BF10E000E0024A1368EE
:1002D00001331360704700BF00000020A0B130B4AC
:1002E0000A4D0B4C2968A368C3EB016101F58C3101
:1002F00001F5A0712A68A368C3EB0263CB1A002B37
:10030000F8DC0138EED130BC704700BF000000209F
:1003100010E000E090B1012812D0022812D003288A
:1003200012D0042812D0052812D0062812D007288F
:1003300012D0082812D0092812D070477D207047AB
:1003400028207047F4207047F8207047A920704794
:10035000DD207047D920704768207047FD20704726
:10036000F920704738B501210420FFF797FF0A49AB
:100370000A4A0B4B0888128819880243094B0A4322
:10038000102503241A80DD709C701946BDE83840A2
:100390000548FFF713BF00BF06000020080000203B
:1003A0000400002098000020000801402DE9F843D7
:1003B000DB4380460C4617469DB24FF000090126EC
:1003C000C9F1070206FA02F2802F02EA0502D2B250
:1003D00002BF06FA09F22A40D2B209484146FFF7A5
:1003E00057FF21460648FFF74FFF09F10109214653
:1003F0000348FFF74BFFB9F1080FE1D1BDE8F883DF
:1004000000080140F8B5074C074F084E251D14F8A9
:10041000013B802239883088FFF7C8FFAC42F6D113
:10042000F8BD00BF9000002008000020060000205A
:10043000134A38B5134D141D85FB0031C317C3EBA8
:10044000A10303EB8301A0EB4100FFF763FF02F878
:10045000010BA2421846EFD10B4CFFF7D3FF2188C6
:100460000A48FFF711FF0120FFF738FF21880748EE
:10047000FFF70CFFBDE838400120FFF72FBF00BF9A
:1004800090000020676666660400002000080140B6
:1004900008B5FFF711FFFFF765FF40F2D240FFF705
:1004A000C7FFFAE70649074A074B9A42BEBF51F811
:1004B000040B42F8040BF8E704488047044800475F
:1004C0001407000800000020740000205D050008EB
:1004D000490100081F49204A002301E041F8043B7C
:1004E0009142FBD3FFF7D4FFFEE7FEE7FEE7FEE70E
:1004F000FEE7FEE7FEE7FEE7FEE7FEE7FEE7FEE7D4
:10050000FEE7FEE7FEE7FEE7FEE7FEE7FEE7FEE7C3
:10051000FEE7FEE7FEE7FEE7FEE7FEE7FEE7FEE7B3
:10052000FEE7FEE7FEE7FEE7FEE7FEE7FEE7FEE7A3
:10053000FEE7FEE7FEE7FEE7FEE7FEE7FEE7FEE793
:10054000FEE7FEE7FEE7FEE7FEE7FEE7FEE7FEE783
:10055000FEE7FEE7740000209C00002030B43C4B16
:100560003C49186882B040F0010018605D680020C6
:100570002940596019684FF41F0421F0847121F457
:100580008031196019681A4621F480211960596870
:1005900021F4FE0159609C6000900190196841F4BB
:1005A0008031196003E0009BB3F5A06F09D0136898
:1005B00003F400330193009B01330093019B002B54
:1005C000F1D0234B1B6813F4003318BF01230193B0
:1005D000019B012B06D0204B4FF000629A6002B0C5
:1005E00030BC70471D4A1A4B1068194640F0100085
:1005F0001060106820F003001060106840F00200E6
:1006000010605A685A605A685A605A6842F48062A8
:100610005A605A6822F47C125A605A6842F4E8120E
:100620005A601A6842F080721A600B68084A9B018F
:10063000FBD51146536823F003035360536843F01E
:10064000020353604B6803F00C03082BFAD1C2E796
:10065000001002400000FFF800ED00E00020024022
:1006600008B5074B044613B10021AFF30080054BDA
:100670001868836A03B19847204600F033F800BF3A
:1006800000000000040700080E4B70B51E460E4C1B
:100690000025E41AA410A54204D056F82530984746
:1006A0000135F8E700F020F8084B094C1E46E41A23
:1006B000A4100025A54204D056F8253098470135EE
:1006C000F8E770BD6C0000206C0000206C0000207A
:1006D0007000002003460244934202D003F8011B3D
:1006E000FAE77047FEE70000F8B500BFF8BC08BCA9
:1006F0009E467047F8B500BFF8BC08BC9E467047E0
:0C070000430000000C000020000000007E
:08070C003CFAFF7F0100000030
:1007140001000000040001000200000000000000CD
:1007240000000000000000000000000000000000C5
:1007340000000000000000000000000000070008A6
:1007440000000000000000000000000000000000A5
:100754000000000000000000000000000000000095
:100764000000000000000000000000000000000085
:10077400000000000000000000000000110100085B
:04078400ED0000087C
:0400000508000000EF
:00000001FF
