:020000040800F2
:10000000005000201D090008630900086509000868
:1000100067090008690900086B0900080000000072
:100020000000000000000000000000006D09000852
:100030006F0900080000000071090008730900083A
:1000400077090008790900087B0900087D09000884
:100050007F09000881090008830900088509000854
:1000600087090008890900088B0900088D09000824
:100070008F090008910900089309000895090008F4
:1000800097090008990900089B0900089D090008C4
:100090009F090008A1090008A3090008A509000894
:1000A000A7090008A9090008AB090008AD09000864
:1000B000AF090008B1090008B3090008B509000834
:1000C000B7090008B9090008BB090008BD09000804
:1000D000BF090008C1090008C3090008C5090008D4
:1000E000C7090008C9090008CB09000810B5054C6C
:1000F000237833B9044B13B10448AFF300800123D4
:10010000237010BD6800002000000000800B000874
:10011000084B10B51BB108490848AFF300800848E8
:10012000036803B910BD074B002BFBD0BDE810409E
:10013000184700BF000000006C000020800B000882
:100140006800002000000000154B002B08BF134B77
:100150009D46A3F5803A00218B460F461348144A6A
:10016000121A00F0F3FC0F4B002B00D098470E4BF7
:10017000002B00D098470020002104000D000D48FE
:10018000002802D00C48AFF3008000F0B9FC20003A
:10019000290000F0B7FB00F09FFC00BF0000080042
:1001A0000050002000000000000000006800002057
:1001B000E4000020000000000000000042680B681E
:1001C00022F4702230B422F480720C79134343EA93
:1001D000042343608568CC688A68094B22432B401E
:1001E0004C79134343EA440383600A7CC36A013AAF
:1001F000D2B223F4700343EA0253C36230BC7047A7
:10020000FDF7F1FF836819B923F00103836070479C
:1002100043F0010383607047836843F00803836001
:10022000704700BF8068C0F3C0007047836843F028
:1002300004038360704700BF8068C0F3800070478C
:10024000836819B923F4A0038360704743F4A003C3
:1002500083607047092970B41DD9A1F10A0606EB25
:100260004606C5680724B440B34025EA0404234386
:10027000062AC3601BD90C2A27D90D3A02EB820249
:10028000C36A1F24944001FA02F223EA04010A43DC
:10029000C26270BC704701EB410605690724B44097
:1002A000B34025EA04042343062A0361E3D8013A54
:1002B00002EB8202436B1F24944001FA02F223EA0C
:1002C00004010A43426370BC7047073A02EB8202A2
:1002D000036B1F24944001FA02F223EA04010A434B
:1002E000026370BC704700BF054A936818B923F4D5
:1002F00000039360704743F400039360704700BFAE
:10030000002401404FF6FE7203683A491A408842C1
:100310004FF000030260036043608360C36027D036
:10032000354B98422AD0354B98422DD0344B9842C9
:1003300030D0344B984239D0334B98423CD0334B79
:1003400098420FD0324B98423CD0324B98423FD02B
:10035000314B984242D0314B984245D0304B984275
:100360001ED070472F4A536843F070635360704744
:100370002C4A536843F00F0353607047294A53686F
:1003800043F0F00353607047264A536843F47063A8
:1003900053607047234A536843F470435360704777
:1003A000214A536843F470235360DAE71D4A5368C7
:1003B00043F47023536070471A4A536843F4700340
:1003C00053607047184A536843F00F0353607047F7
:1003D000154A536843F0F00353607047124A53685C
:1003E00043F47063536070470F4A536843F470439B
:1003F00053607047080002401C0002403000024079
:1004000044000240580002406C000240800002405C
:10041000080402401C04024030040240440402402C
:100420005804024000000240000402400A6A30B44E
:100430008D680B692A434D6913438A691D43CB6953
:1004400045EA02044D6A026823438C6A1D4322F484
:10045000FF432C4323F0700323430360CB6830BC7D
:1004600043600B6883604B68C360704729B94FF6DF
:10047000FE730268134003607047036843F0010392
:1004800003607047CB782DE9F04103F00F06DB06DF
:1004900048BF8B780C8848BF1E4314F0FF0F26D04E
:1004A0000568002301274FF00F0803E00133082BF4
:1004B0001BD00C8807FA03F232EA0404F6D19C0040
:1004C00091F803E008FA04FC25EA0C0506FA04F4A6
:1004D000BEF1280F45EA040538D0BEF1480F03F1FC
:1004E000010308BF0261082BE3D105600C88FF2CD3
:1004F0002AD94568002301274FF00F0C03E0013390
:10050000082B20D00C8803F1080207FA02F232EA25
:100510000404F4D191F803E09C00BEF1280F04BF5D
:10052000426191F803E00CFA04F8BEF1480F03F1C0
:10053000010325EA080506FA04F408BF0261082B46
:1005400045EA0405DED14560BDE8F0814261ADE7D2
:10055000034A536823F4404318435060704700BF78
:100560000010024029B9054A536923EA000050618E
:100570007047024B5A69104358617047001002409F
:1005800029B9054A936923EA000090617047024B3C
:100590009A6910439861704700100240254A038809
:1005A00090429BB212D002F5006290420ED0B0F1A0
:1005B000804F0BD0A2F59832904207D002F58062AE
:1005C000904203D002F58062904203D14A8823F022
:1005D00070031343184A904224D002F5806290427F
:1005E00020D0CA8823F440739BB2134303808A88C7
:1005F000104B82850A88984202850ED00F4B984294
:100600000BD003F54063984207D003F5806398420E
:1006100003D003F58063984201D10B7A038601234E
:100620008382704703808B8883850B880385012331
:1006300083827047002C01400010004000340140CC
:10064000038CF0B423F001031B041B0C0384048C03
:100650008788028B0E8924F002044B881B4D2404EA
:1006600022F07302240C334312040E882343120C2D
:10067000A8429BB2BCB242EA060216D005F500655C
:10068000A84212D005F54065A8420ED005F5806558
:10069000A8420AD005F58065A84206D0848002836E
:1006A000CA88F0BC8286038470474E898F89CD89C1
:1006B00023F00803334324F440748E883D4323F031
:1006C00004032C433343A4B2E8E700BF002C0140ED
:1006D0004FF6FF72002382800380C3804380037241
:1006E000704700BF038829B923F001031B041B0CCA
:1006F000038070479BB243F001030380704700BF43
:10070000B0F8443021B9C3F30E03A0F84430704769
:100710006FEA43436FEA53439BB2A0F844307047FB
:1007200083899BB21AB923EA010181817047194379
:100730008181704708B54FF44040FFF709FF012160
:100740000846FFF70FFFBDE80840012140F61420DE
:10075000FFF716BF38B501210820FFF711FF074B3F
:100760004FF40075032404221D809C70DA70194632
:10077000BDE838400248FFF785BE00BFB400002046
:10078000000C014038B501214FF40070FFF7F8FE6E
:1007900001210420FFF7F4FE1D4B01240025032254
:1007A00019461C489A701C80DD70FFF76BFE1A4BCF
:1007B0004FF46022194619489A601D601D715C71E2
:1007C000DD601C74FFF7FAFC224605232946134816
:1007D000FFF740FD21461148FFF714FD2046FFF7C3
:1007E00083FD0E48FFF718FD0C48FFF71BFD00289E
:1007F000FAD10A48FFF71AFD0848FFF71DFD002847
:10080000FAD101210548BDE83840FFF719BD00BF06
:10081000B4000020000801409000002000240140A6
:10082000F8B51B4B1B4C032219464FF48077182553
:100830001948DD709A701F80FFF724FE2046FFF7ED
:1008400047FF44F2EE43154D00264FF47F622146E8
:100850002846A2802380E6806680FFF79FFE104B2B
:1008600060221946012428461A801E815C80FFF709
:10087000E7FE21462846FFF735FF21462846FFF7C9
:100880003FFF224639462846BDE8F840FFF748BFFB
:10089000B40000208400002000080140002C01402A
:1008A000A4000020F8B5134C134F2046FFF72AFD93
:1008B000124B134A10261A604FF480714FF4806275
:1008C000012520465F609E609961DA611946002229
:1008D00020274FF400561F625E621A615A619A62C5
:1008E000DD60FFF7A3FD29462046BDE8F840FFF78D
:1008F000BDBD00BF580002404C240140B80000209C
:10090000342C014008B5FFF715FFFFF723FFFFF771
:1009100039FFFFF785FFFFF7C5FFFEE70649074AE6
:10092000074B9A42BEBF51F8040B42F8040BF8E79C
:1009300004488047044800478C0B00080000002052
:1009400068000020D5090008490100081F49204A15
:10095000002301E041F8043B9142FBD3FFF7D2FFB3
:10096000FEE7FEE7FEE7FEE7FEE7FEE7FEE7FEE75F
:10097000FEE7FEE7FEE7FEE7FEE7FEE7FEE7FEE74F
:10098000FEE7FEE7FEE7FEE7FEE7FEE7FEE7FEE73F
:10099000FEE7FEE7FEE7FEE7FEE7FEE7FEE7FEE72F
:1009A000FEE7FEE7FEE7FEE7FEE7FEE7FEE7FEE71F
:1009B000FEE7FEE7FEE7FEE7FEE7FEE7FEE7FEE70F
:1009C000FEE7FEE7FEE7FEE7FEE7FEE76800002041
:1009D000E400002030B43C4B3C49186882B040F041
:1009E000010018605D6800202940596019684FF4C3
:1009F0001F0421F0847121F48031196019681A46AE
:100A000021F480211960596821F4FE0159609C602D
:100A100000900190196841F48031196003E0009B57
:100A2000B3F5A06F09D0136803F400330193009B62
:100A300001330093019B002BF1D0234B1B6813F46F
:100A4000003318BF01230193019B012B06D0204BDB
:100A50004FF000629A6002B030BC70471D4A1A4BDA
:100A60001068194640F010001060106820F0030074
:100A70001060106840F0020010605A685A605A68AE
:100A80005A605A6842F480625A605A6822F47C12B2
:100A90005A605A6842F4E8125A601A6842F080724A
:100AA0001A600B68084A9B01FBD51146536823F076
:100AB00003035360536843F0020353604B6803F031
:100AC0000C03082BFAD1C2E7001002400000FFF827
:100AD00000ED00E00020024008B5074B044613B1CA
:100AE0000021AFF30080054B1868836A03B1984773
:100AF000204600F033F800BF000000007C0B000827
:100B00000E4B70B51E460E4C0025E41AA410A542EB
:100B100004D056F8253098470135F8E700F020F862
:100B2000084B094C1E46E41AA4100025A54204D027
:100B300056F8253098470135F8E770BD6000002071
:100B40006000002060000020640000200346024492
:100B5000934202D003F8011BFAE77047FEE700005A
:100B6000F8B500BFF8BC08BC9E467047F8B500BF9A
:100B7000F8BC08BC9E4670474300000000000020FF
:040B80000000000071
:080B8400C4F5FF7F0100000031
:100B8C000000000000000000000000000000000059
:100B9C000000000000000000000000000000000049
:100BAC00780B0008000000000000000000000000AE
:100BBC000000000000000000000000000000000029
:100BCC000000000000000000000000000000000019
:100BDC000000000000000000000000000000000009
:080BEC0011010008ED000008F2
:0400000508000000EF
:00000001FF
