:020000040800F2
:10000000005000201D0A0008630A0008650A000865
:10001000670A0008690A00086B0A0008000000006F
:100020000000000000000000000000006D0A000851
:100030006F0A000800000000710A0008730A000837
:10004000770A0008790A00087B0A00087D0A000880
:100050007F0A0008810A0008830A0008850A000850
:10006000870A0008890A00088B0A00088D0A000820
:100070008F0A0008910A0008930A0008950A0008F0
:10008000970A0008990A00089B0A00089D0A0008C0
:100090009F0A0008A10A0008A30A0008A50A000890
:1000A000A70A0008A90A0008AB0A0008AD0A000860
:1000B000AF0A0008B10A0008B30A0008B50A000830
:1000C000B70A0008B90A0008BB0A0008BD0A000800
:1000D000BF0A0008C10A0008C30A0008C50A0008D0
:1000E000C70A0008C90A0008CB0A000810B5054C69
:1000F000237833B9044B13B10448AFF300800123D4
:10010000237010BD68000020000000009C0C000857
:10011000084B10B51BB108490848AFF300800848E8
:10012000036803B910BD074B002BFBD0BDE810409E
:10013000184700BF000000006C0000209C0C000865
:100140006800002000000000154B002B08BF134B77
:100150009D46A3F5803A00218B460F461348144A6A
:10016000121A00F073FD0F4B002B00D098470E4B76
:10017000002B00D098470020002104000D000D48FE
:10018000002802D00C48AFF3008000F039FD2000B9
:10019000290000F00BFC00F01FFD00BF000008006C
:1001A0000050002000000000000000006800002057
:1001B0008D0000200000000000000000CB782DE939
:1001C000F04103F00F06DB0648BF8B780C8848BF70
:1001D0001E4314F0FF0F26D00568002301274FF0BF
:1001E0000F0803E00133082B1BD00C8807FA03F239
:1001F00032EA0404F6D19C0091F803E008FA04FC0A
:1002000025EA0C0506FA04F4BEF1280F45EA0405B8
:1002100038D0BEF1480F03F1010308BF0261082B7B
:10022000E3D105600C88FF2C2AD9456800230127FB
:100230004FF00F0C03E00133082B20D00C8803F1A2
:10024000080207FA02F232EA0404F4D191F803E05A
:100250009C00BEF1280F04BF426191F803E00CFA44
:1002600004F8BEF1480F03F1010325EA080506FA78
:1002700004F408BF0261082B45EA0405DED145609D
:10028000BDE8F0814261ADE78368194214BF0120E7
:1002900000207047016170474161704729B9054AE4
:1002A000936923EA000090617047024B9A691043FA
:1002B000986170470010024029B9054AD36923EAC2
:1002C0000000D0617047024BDA691043D861704773
:1002D00000100240254A038890429BB212D002F5DA
:1002E000006290420ED0B0F1804F0BD0A2F5983250
:1002F000904207D002F58062904203D002F58062FE
:10030000904203D14A8823F070031343184A904265
:1003100024D002F58062904220D0CA8823F4407332
:100320009BB2134303808A88104B82850A889842C7
:1003300002850ED00F4B98420BD003F540639842D4
:1003400007D003F58063984203D003F58063984299
:1003500001D10B7A038601238382704703808B8847
:1003600083850B880385012383827047002C01401D
:100370000010004000340140038829B923F0010334
:100380001B041B0C038070479BB243F001030380E6
:10039000704700BF81847047808C80B2704700BF77
:1003A00000F0CAB970B506460C46154600F0E4F9EF
:1003B000304600F01FFA68B185B1013DEDB2254429
:1003C000013C01E0AC4209D014F8010F00F012FA30
:1003D0000028F7D100F0F2F9002070BD00F0EEF92E
:1003E000012070BD70B5044682B00E46154600F07F
:1003F000C3F9204600F0FEF9A8B1013D002D4FF0F1
:10040000000407DD012000F03FFA631C3055DCB228
:10041000AC42F7DB002000F037FA305500F0CEF99F
:10042000012002B070BD019000F0C8F9019802B03F
:1004300070BD00BF10B40A4C0A4A237802F10800CC
:1004400012F8011F5B0811B163F07F03DBB2824237
:10045000F6D12370012202494E2010BCFFF7A2BF43
:100460008C0000208300002000F0080310B513B3B7
:100470001A4C0123E37100F0040303F0FF0223B3DD
:100480000123A37100F0020303F0FF0223B3012351
:10049000637110F001001CBF012323714FF00103B1
:1004A000A37008BF2071FFF7C5FF0023A370BDE84C
:1004B0001040FFF7BFBF094C03F0FF0200F0040338
:1004C000E27103F0FF02002BDAD100F00203A27107
:1004D00003F0FF02002BDAD16271DAE7840000201A
:1004E0002DE9F041164C012782B04FF0000827712A
:1004F0006771A771E7713E46FFF79CFF454684F898
:100500000080FFF797FF6770FFF794FFA670FFF773
:1005100091FF01220DF107014F20FFF763FFA57046
:10052000FFF788FFA670FFF785FFA570FFF782FF32
:100530009DF807301B07E9D402B0BDE8F08100BF89
:100540008400002070B50446084D0026FFF7C8FF60
:100550002E70FFF76FFF6E70FFF76CFF2009FFF73B
:1005600083FF2046BDE87040FFF77EBF8400002077
:1005700038B5322000F0D6F8FFF712FF1C4B0021EF
:1005800003F1080203F8011F93424FF00004F9D170
:10059000184DFFF74FFF2C70FFF74CFF6C70FFF703
:1005A00049FF0320FFF760FF052000F0BBF80320A0
:1005B000FFF75AFF012000F0B5F80320FFF754FFC2
:1005C000012000F0AFF80220FFF74EFF012000F0FD
:1005D000A9F82820FFF7B6FF0C20FFF7B3FF0E2085
:1005E000FFF7B0FFBDE838400120FFF7ABBF00BF09
:1005F000830000208400002038B50446094DFFF731
:100600006FFF01232B70FFF715FF00236B70FFF7BF
:1006100011FF2009FFF728FF2046BDE83840FFF70B
:1006200023BF00BF8400002010B50446007828B125
:10063000FFF7E2FF14F8010F0028F9D110BD00BF49
:100640000120FFF77FBF00BFC020FFF77BBF00BFC7
:10065000044B10B9D870FFF7EDBE0122DA70FFF736
:10066000E9BE00BF8400002070B5012184B01020D5
:10067000FFF714FE01210420FFF710FE01210846B8
:10068000FFF71AFE10264FF400536946032515485C
:10069000ADF8003001248DF803608DF80250FFF7AB
:1006A0008DFD694610488DF803608DF80250ADF855
:1006B0000040FFF783FD4FF6FF720DEB0601472365
:1006C00021F80C3D4FF080400023ADF80820ADF834
:1006D0000630FFF7FFFD21464FF08040FFF74CFE4C
:1006E00004B070BD001001400008014008B50021B1
:1006F0004FF08040FFF74EFE4FF08040FFF74CFE7A
:10070000B0F57A7FF8D308BD10B5002104464FF04C
:100710008040FFF73FFE4FF08040FFF73DFEA042D4
:10072000F9D310BD30B110B50446FFF7DFFF013C2F
:10073000FBD110BD704700BF10B50E4C82B0012137
:100740000420FFF7ABFD03231422204601A98DF8F6
:100750000720ADF804308DF80630FFF72FFD204656
:100760000121FFF797FD20460221FFF793FD02B01C
:1007700010BD00BF0008014010B50F4C02212046FB
:10078000FFF788FD0320FFF7BFFF20460121FFF799
:1007900081FD0320FFF7B8FF20460121FFF77CFD14
:1007A0000320FFF7B1FF20460221FFF775FDBDE8EA
:1007B00010400320FFF7A8BF0008014010B50C4C03
:1007C00001212046FFF768FD0320FFF79DFF20462B
:1007D0000221FFF75FFD0320FFF796FF204601216E
:1007E000FFF758FDBDE810400320FFF78DBF00BFA5
:1007F0000008014038B50546082418E0FFF74CFD15
:100800000320FFF781FF02211E48FFF743FD05206B
:10081000FFF77AFF02211B48FFF73EFD0220FFF79A
:1008200073FF631E6D0013F0FF04EDB208D015F0E6
:10083000800F4FF001011348E0D0FFF72BFDDFE7F9
:1008400001211048FFF726FD0320FFF75DFF02217D
:100850000C48FFF71FFD0320FFF756FF0121094851
:10086000FFF712FD04460220FFF74EFF0221054864
:10087000FFF712FD0520FFF747FFB4FA84F04009A7
:1008800038BD00BF0008014070B501210646204870
:10089000FFF700FD0320FFF737FF082502211C4862
:1008A000FFF7F8FC0320FFF72FFF64000121184831
:1008B000E4B2FFF7E9FC08B144F001040220FFF7BD
:1008C00023FF02211248FFF7E7FC0520FFF71CFF7A
:1008D0006B1E13F0FF05E1D101210D48A6B9FFF70A
:1008E000D9FC0320FFF710FF02210948FFF7D2FCD3
:1008F0000520FFF709FF02210548FFF7CDFC052081
:10090000FFF702FF204670BDFFF7C6FCE9E700BF16
:100910000008014038B50546082415E0FFF7BAFC89
:10092000FFF7E4FE01211448FFF7B6FCFFF7DEFEF7
:10093000FFF7DCFEFFF7DAFEFFF7D8FE631E6D005F
:1009400013F0FF04EDB215D02B064FF001010A4859
:10095000E4D5FFF79FFCFFF7C9FEFFF7C7FEFFF7DF
:10096000C5FEFFF7C3FE01210348FFF795FCFFF723
:10097000BDFEE3E738BD00BF0008014038B50224E2
:1009800003E00134E4B2FF2C0DD0E307F9D4FFF704
:10099000F3FE2046FFF72EFF0546FFF70FFF002D61
:1009A000EFD0204638BD0024204638BD38B5FFF7CB
:1009B000E5FF0546FFF758FEFFF7BEFEFFF7D8FD3F
:1009C000FFF73EFE0120FFF743FE1148FFF72CFE24
:1009D000FFF73AFE0F48FFF727FE2846FFF79AFF7A
:1009E0004FF400510C48FFF755FC4FF4FA74FFF731
:1009F0007DFE013CFBD14FF400510748FFF74CFC52
:100A00004FF4FA74FFF772FE013CFBD1E5E700BF3B
:100A1000780C0008840C0008001001400649074AC1
:100A2000074B9A42BEBF51F8040B42F8040BF8E79B
:100A30000448804704480047A80C00080000002034
:100A400068000020D50A0008490100081F49204A13
:100A5000002301E041F8043B9142FBD3FFF7A6FFDE
:100A6000FEE7FEE7FEE7FEE7FEE7FEE7FEE7FEE75E
:100A7000FEE7FEE7FEE7FEE7FEE7FEE7FEE7FEE74E
:100A8000FEE7FEE7FEE7FEE7FEE7FEE7FEE7FEE73E
:100A9000FEE7FEE7FEE7FEE7FEE7FEE7FEE7FEE72E
:100AA000FEE7FEE7FEE7FEE7FEE7FEE7FEE7FEE71E
:100AB000FEE7FEE7FEE7FEE7FEE7FEE7FEE7FEE70E
:100AC000FEE7FEE7FEE7FEE7FEE7FEE76800002040
:100AD0008D00002030B43C4B3C49186882B040F097
:100AE000010018605D6800202940596019684FF4C2
:100AF0001F0421F0847121F48031196019681A46AD
:100B000021F480211960596821F4FE0159609C602C
:100B100000900190196841F48031196003E0009B56
:100B2000B3F5A06F09D0136803F400330193009B61
:100B300001330093019B002BF1D0234B1B6813F46E
:100B4000003318BF01230193019B012B06D0204BDA
:100B50004FF000629A6002B030BC70471D4A1A4BD9
:100B60001068194640F010001060106820F0030073
:100B70001060106840F0020010605A685A605A68AD
:100B80005A605A6842F480625A605A6822F47C12B1
:100B90005A605A6842F4E8125A601A6842F0807249
:100BA0001A600B68084A9B01FBD51146536823F075
:100BB00003035360536843F0020353604B6803F030
:100BC0000C03082BFAD1C2E7001002400000FFF826
:100BD00000ED00E00020024008B5074B044613B1C9
:100BE0000021AFF30080054B1868836A03B1984772
:100BF000204600F033F800BF00000000980C000809
:100C00000E4B70B51E460E4C0025E41AA410A542EA
:100C100004D056F8253098470135F8E700F020F861
:100C2000084B094C1E46E41AA4100025A54204D026
:100C300056F8253098470135F8E770BD6000002070
:100C40006000002060000020640000200346024491
:100C5000934202D003F8011BFAE77047FEE7000059
:100C6000F8B500BFF8BC08BC9E467047F8B500BF99
:100C7000F8BC08BC9E46704748656C6C6F20776F67
:100C8000726C64004932433A20504130202D20508C
:100C9000413100004300000000000020000000007F
:080CA000A8F4FF7F0100000031
:100CA800000000000000000000000000000000003C
:100CB800000000000000000000000000000000002C
:100CC800940C000800000000000000000000000074
:100CD800000000000000000000000000000000000C
:100CE80000000000000000000000000000000000FC
:100CF80000000000000000000000000000000000EC
:080D080011010008ED000008D4
:0400000508000000EF
:00000001FF
