:020000040800F2
:100000000050002069010008AD010008AD010008A2
:10001000AD010008AD010008AD01000800000000BE
:10002000000000000000000000000000AD0100081A
:10003000AD01000800000000AD010008AD0100089E
:10004000AD010008AD010008AD010008AD010008D8
:10005000AD010008AD010008AD010008AD010008C8
:10006000AD010008AD010008AD010008AD010008B8
:10007000AD010008AD010008AD010008AD010008A8
:10008000AD010008AD010008AD010008AD01000898
:10009000AD010008AD010008AD010008AD01000888
:1000A000AD010008AD010008AD010008AD01000878
:1000B000AD010008AD010008AD010008AD01000868
:1000C000AD010008AD010008AD010008AD01000858
:1000D000AD0100081D080008AD010008AD010008D1
:1000E000AD010008AD010008AD01000800000000EE
:1000F0000000000000000000000000000000000000
:0C01000000000000000000005FF808F1A3
:10010C0010B5054C237833B9044B13B10448AFF345
:10011C0000800123237010BD780000200000000037
:10012C008C190008084B10B51BB108490848AFF3EF
:10013C0000800848036803B910BD074B002BFBD0A7
:10014C00BDE81040184700BF000000007C000020F4
:10015C008C1900087800002000000000002103E04A
:10016C000A4B5B584350043109480A4B42189A42D7
:10017C00F6D3094A02E0002342F8043B074B9A42AB
:10018C00F9D300F087FB00F007FB7047581A000802
:10019C00000000207800002078000020FC000020E7
:1001AC00FEE70000CB782DE9F04103F00F06DB06EB
:1001BC0048BF8B780C8848BF1E4314F0FF0F26D025
:1001CC000568002301274FF00F0803E00133082BCB
:1001DC001BD00C8807FA03F232EA0404F6D19C0017
:1001EC0091F803E008FA04FC25EA0C0506FA04F47D
:1001FC00BEF1280F45EA040538D0BEF1480F03F1D3
:10020C00010308BF0261082BE3D105600C88FF2CA9
:10021C002AD94568002301274FF00F0C03E0013366
:10022C00082B20D00C8803F1080207FA02F232EAFC
:10023C000404F4D191F803E09C00BEF1280F04BF34
:10024C00426191F803E00CFA04F8BEF1480F03F197
:10025C00010325EA080506FA04F408BF0261082B1D
:10026C0045EA0405DED14560BDE8F0814261ADE7A9
:10027C000161704730B40028184B00F44012B4BF31
:10028C00DB695B68B2F5401F84B21ED0C20213D585
:10029C00C0F303450322AA4023EA020343F0706330
:1002AC0019B1420D1201944023430C4A0028B4BFEB
:1002BC00D361536030BC7047420D120104FA02F254
:1002CC0023EA020343F07063EAE7044D23F0706302
:1002DC006A6822F070626A60E2E700BF00000140C9
:1002EC0030B4214A536803F00C03042B06D0082BBE
:1002FC0025D01BB11D4A1346026001E01B4B036065
:10030C00194A1B4C51681B4DC1F30311615CCB4066
:10031C0043605168C1F30221615C23FA01F18160F1
:10032C005168C1F3C221615CCB40C3605268C2F317
:10033C008132AA5C30BCB3FBF2F3036170475368A3
:10034C005168C3F38343C90303F1020307D5526811
:10035C00920304D4054A02FB03F30360D0E7064A78
:10036C0002FB03F30360CBE70010024000127A009B
:10037C00040000200000002000093D0029B9054AB6
:10038C00936923EA000090617047024B9A6910430D
:10039C00986170470010024029B9054AD36923EAD5
:1003AC000000D0617047024BDA691043D861704786
:1003BC0000100240254A038890429BB212D002F5ED
:1003CC00006290420ED0B0F1804F0BD0A2F5983263
:1003DC00904207D002F58062904203D002F5806211
:1003EC00904203D14A8823F070031343184A904279
:1003FC0024D002F58062904220D0CA8823F4407346
:10040C009BB2134303808A88104B82850A889842DA
:10041C0002850ED00F4B98420BD003F540639842E7
:10042C0007D003F58063984203D003F580639842AC
:10043C0001D10B7A038601238382704703808B885A
:10044C0083850B880385012383827047002C014030
:10045C000010004000340140038829B923F0010347
:10046C001B041B0C038070479BB243F001030380F9
:10047C00704700BF81847047808C80B2704700BF8A
:10048C0030B504460D46038ACA889BB223F4405308
:10049C001343038282890B89888892B2498903436A
:1004AC0022F4B0520B4322F00C0213439BB2A381F3
:1004BC00A38AAA899BB223F4407387B01343A38207
:1004CC0001A8FFF70DFF04991A48039BA2898442E7
:1004DC0008BF0B4612F4004F2A6803EB830314BFCA
:1004EC005200920003EB8303B3FBF2F3124DA1898C
:1004FC00A5FB03206422400900FB12330A044FEAD7
:10050C0000100AD41A013232A5FB0223C3F34313A1
:10051C0003439BB2238107B030BDD9003231A5FB18
:10052C000131C1F3421242EA00039BB2238107B0AE
:10053C0030BD00BF003801401F85EB51838929B9BC
:10054C0023F400531B041B0C838170479BB243F4B0
:10055C0000538381704700BF10B401F01F04C1F336
:10056C0042110123012903FA04F30FD002290CBF15
:10057C00103014302AB9026822EA0303036010BC5D
:10058C00704702681343036010BC70470C30F1E7EE
:10059C00C1F30801818070478088C0F30800704760
:1005AC000388194214BF012000207047C94389B247
:1005BC0001807047C1F3421210B4012301F01F04F3
:1005CC00012A03FA04F315D0022A0CBF028A828A8C
:1005DC0092B21340028892B24BB10123090A03FA7A
:1005EC0001F10A4214BF1846002010BC704718468F
:1005FC0010BC7047828992B21340EBE7090A0123C1
:10060C0003FA01F1C94389B20180704700B5012199
:10061C0085B00846FFF7C0FE4FF6FF7204A94723CA
:10062C0021F80C3D4FF080400023ADF80820ADF8C8
:10063C000630FFF7BFFE01214FF08040FFF70CFFA3
:10064C0005B05DF804FB00BF80B110B50446002175
:10065C004FF08040FFF70EFF4FF08040FFF70CFF8C
:10066C00B0F57A7FF8D3013CF1D110BD704700BFD3
:10067C0010B5012182B00820FFF780FE042203236D
:10068C0010240DEB020105488DF80740ADF804204D
:10069C008DF80630FFF786FD02B010BD000C01404E
:1006AC0070B516460C460E484021FFF77FFF002E12
:1006BC000DDDA51980210A48FFF772FF0028F9D03B
:1006CC0014F8011B0648FFF763FFA542F2D1402145
:1006DC000348FFF765FF0028F9D0304670BD00BF16
:1006EC0000380140F0B5074687B001214FF4804037
:1006FC00FFF744FE254E01210420FFF73FFE0121A8
:10070C000420FFF7B7FD224C0325304601A94FF416
:10071C0000721823ADF804208DF807308DF80650C0
:10072C00FFF740FD01A930464FF480624823ADF835
:10073C0004208DF807308DF80650FFF733FD0023A9
:10074C000C22204602A9ADF81220ADF81430ADF8F9
:10075C001030ADF80E30ADF80C300297FFF790FE6C
:10076C0020464021FFF722FF2046012240F225516E
:10077C00FFF7F2FE074B20225A601022204683F826
:10078C0025230121FFF7DAFE07B0F0BD0008014078
:10079C000038014000E100E0F8B54FF4E130FFF71C
:1007AC00A1FF154800F086F9FFF762FFFFF72EFF57
:1007BC00124D134E134F4FF47A70FFF745FF297803
:1007CC00114800F0F1F82B78012BF4D104210F48DB
:1007DC00FFF74EFD338800249BB23BB1385D00F02F
:1007EC00FBF8338801349BB2A342F7DC0A2000F0FB
:1007FC00F3F800232B70DEE7A41900089400002006
:10080C0096000020A8000020B0190008000C014040
:10081C0038B540F225511A48FFF7CCFE30B9BDE887
:10082C00384040F225511648FFF7E8BE1448FFF750
:10083C00B3FEC0B20A280FD0124A13491378DBB2A8
:10084C00C854137840F225510133DBB213700C48B5
:10085C00BDE83840FFF7D2BE0A4B0B481A7800218E
:10086C00D2B281541A78094D094801242A80197092
:10087C00047040F22551BDE838400148FFF7BEBE78
:10088C000038014098000020A800002096000020AD
:10089C009400002030B43C4B3C49186882B040F0C6
:1008AC00010018605D6800202940596019684FF4F8
:1008BC001F0421F0847121F48031196019681A46E3
:1008CC0021F480211960596821F4FE0159609C6063
:1008DC0000900190196841F48031196003E0009B8D
:1008EC00B3F5A06F09D0136803F400330193009B98
:1008FC0001330093019B002BF1D0234B1B6813F4A5
:10090C00003318BF01230193019B012B06D0204B10
:10091C004FF000629A6002B030BC70471D4A1A4B0F
:10092C001068194640F010001060106820F00700A5
:10093C001060106840F0020010605A685A605A68E3
:10094C005A605A6842F480625A605A6822F47C12E7
:10095C005A605A6842F4E8125A601A6842F080727F
:10096C001A600B68084A9B01FBD51146536823F0AB
:10097C0003035360536843F0020353604B6803F066
:10098C000C03082BFAD1C2E7001002400000FFF85C
:10099C0000ED00E00020024003460244934202D0E6
:1009AC0003F8011BFAE770470FB40A4B13B51C6828
:1009BC0024B1A36913B9204600F036FA05AB049AAA
:1009CC00A1682046019300F0EBFB02B0BDE810409B
:1009DC0004B070477400002038B5084B05461C68FD
:1009EC0024B1A36913B9204600F01EFAA268294667
:1009FC002046BDE8384000F08BBE00BF74000020DC
:100A0C0070B50E46054618B183690BB900F00CFAA7
:100A1C00AB69AC6813B9284600F006FA224B9C422D
:100A2C0001D16C6808E0214B9C4201D1AC6803E019
:100A3C001F4B9C4208BFEC68A3891B0701D5236997
:100A4C003BB92146284600F091F810B14FF0FF3029
:100A5C0070BD013EA36816F8011F013BA36091B164
:100A6C00002B04DAA269934206DB0A2904D023681E
:100A7C005A1C22601970EDE72246284600F022F835
:100A8C000130E7D1E2E7002B08DA22460A2128469A
:100A9C0000F018F80130D9D00A2070BD23680A2064
:100AAC005A1C2260187070BDBC190008DC190008B3
:100ABC00FC190008024B01461868FFF7A1BF00BFE4
:100ACC0074000020F8B50F461446064618B1836929
:100ADC000BB900F0A9F9224B9C4201D1746808E0D3
:100AEC00204B9C4201D1B46803E01F4B9C4208BFD1
:100AFC00F468A369A360A3891A0709D523693BB1DC
:100B0C0023682069FDB2181A636998420FDB08E06C
:100B1C002146304600F02AF80028F1D04FF0FF3083
:100B2C00F8BD2146304600F015F90028F6D1A3682F
:100B3C00013BA36023685A1C22601F706269431C2E
:100B4C00934204D0A389DB0707D50A2D05D1214692
:100B5C00304600F0FFF80028E0D12846F8BD00BF71
:100B6C00BC190008DC190008FC190008324B70B5E0
:100B7C001D6806460C4625B1AB6913B9284600F032
:100B8C0053F92E4B9C4201D16C6808E02C4B9C42D3
:100B9C0001D1AC6803E02B4B9C4208BFEC68B4F964
:100BAC000C309AB215071DD4D00602D4092232603B
:100BBC003AE0510712D5616B41B104F144039942FB
:100BCC0002D0304600F01AFA00236363A38923F0A5
:100BDC002403A3810023636023692360A38943F06A
:100BEC000803A38123694BB9A38903F42073B3F5DC
:100BFC00007F03D02146304600F0C4F9A28912F0E0
:100C0C00010305D00023A36063695B42A36103E089
:100C1C00920758BF6369A36023695BB9B4F90C30C0
:100C2C0003F0800080B230B143F04003A3814FF059
:100C3C00FF3070BD002070BD74000020BC1900088E
:100C4C00DC190008FC1900088A892DE9F0410546D9
:100C5C0010070C4659D44B68002B02DC0B6C002B94
:100C6C0017DDE66AAEB102F48052002392B22F680F
:100C7C002B600AB1606D15E0216A01232846B0474C
:100C8C00411C0FD12B686BB11D2B01D0162B03D13E
:100C9C002F600020BDE8F081A38943F04003A381BD
:100CAC00BDE8F081A3895A0705D56368C01A636B48
:100CBC000BB1236CC01A00230246E66A216A28464F
:100CCC00B047431CA38906D129681D2939D8204A6D
:100CDC00CA40D60735D5002262602269D904226049
:100CEC0004D5421C01D12B6803B96065616B2F6080
:100CFC000029CED004F14403994202D0284600F0DA
:100D0C007DF900206063BDE8F0810F69002FC0D031
:100D1C0093070E680CBF4B690023C7EB06080F60E6
:100D2C008B6002E00744C0EB0808B8F1000FB0DD9F
:100D3C0043463A46216A2846A66AB0470028F1DCA9
:100D4C00A38943F04003A3814FF0FF30BDE8F0814D
:100D5C000100402038B50B6905460C46DBB118B1D3
:100D6C0083690BB900F060F80C4B9C4201D16C68A4
:100D7C0008E00B4B9C4201D1AC6803E0094B9C4250
:100D8C0008BFEC68B4F90C302BB121462846BDE8FD
:100D9C003840FFF759BF002038BD00BFBC19000810
:100DAC00DC190008FC190008014900F0A9B800BFC3
:100DBC00610D000810B50446002303604360836096
:100DCC0081814366C28103614361836119460822B4
:100DDC005C30FFF7E1FD054B24626362044BA362B8
:100DEC00044BE362044B236310BD00BFA91700083A
:100DFC00CB170008031800082718000870B56823E3
:100E0C004D1E5D430E4605F1740100F043F9044696
:100E1C0040B1002180E842000C30A06005F168026E
:100E2C00FFF7BAFD204670BD836910B5044633BB8D
:100E3C008364C3640365124B124A1B688262984236
:100E4C0004BF0123836100F01FF86060204600F0AE
:100E5C001BF8A060204600F017F80022E060042187
:100E6C006068FFF7A7FF01220921A068FFF7A2FF26
:100E7C0002221221E068FFF79DFF0123A36110BD40
:100E8C00B8190008B50D0008F8B51C4B07461E68CC
:100E9C00B36913B93046FFF7C7FF4836B4687368B7
:100EAC00013B04D4B4F90C507DB16834F8E73368D5
:100EBC000BB13668F2E704213846FFF79FFF30602C
:100ECC000028F6D10C233B60F8BD4FF6FF73E3818D
:100EDC000123A38165662560A56065602561656158
:100EEC00A5610822294604F15C00FFF755FD6563F6
:100EFC00A563A564E5642046F8BD00BFB8190008D9
:100F0C002DE9F8438046894600F14804002694B147
:100F1C00A5686768013F0CD4AB89012B07D9B5F9DB
:100F2C000E30013303D029464046C8470643683586
:100F3C00F0E72468EBE73046BDE8F88370B50E4661
:100F4C00B1F90E1090B0002914461D4606DA0023A4
:100F5C002B60B3891A060ED540230EE001AA00F0CF
:100F6C0083FC0028F3DB029A02F47042A2F50053D2
:100F7C005A425A412A604FF480630020236010B01B
:100F8C0070BD00008B8973B59E0705460C4610D4C6
:100F9C0001AB6A46FFF7D2FF00990646284600F0DF
:100FAC0079F868B9B4F90C309A0522D443F00203ED
:100FBC00A38104F14703236023610123636118E0DB
:100FCC000D4BAB62A389206043F08003A381009B8F
:100FDC0020616361019B4BB1B4F90E10284600F0FF
:100FEC0055FC18B1A38943F00103A381A0893043B8
:100FFC00A08102B070BD00BFB50D000838B5054624
:10100C00002944D051F8043C0C1F002BB8BFE41845
:10101C0000F06CFC1E4A1368114613B9636014602F
:10102C0030E0A3420DD92268A018834201BF186892
:10103C005B681218226063600C6023E0A24203D844
:10104C0013465A68002AF9D118681918A1420BD115
:10105C002168014458188242196013D110685268F3
:10106C00014419605A600DE002D90C232B6009E091
:10107C0021686018824201BF10685268091821600B
:10108C0062605C602846BDE8384000F030BC38BD7A
:10109C00A000002070B5CD1C25F0030508350C2DE3
:1010AC0038BF0C25002D064601DBA94202D90C23C2
:1010BC00336046E000F01AFC234B1C681A462146AC
:1010CC00A1B10B685B1B0ED40B2B03D90B60CC1896
:1010DC00CD501EE08C420BBF63684B68136063609D
:1010EC0018BF0C4615E00C464968E9E7174C236815
:1010FC001BB9304600F042FB20602946304600F018
:10110C003DFB431C18D0C41C24F00304A0420DD199
:10111C002560304600F0EBFB04F10B00231D20F0A2
:10112C000700C31A0ED05A42E25070BD211A304645
:10113C0000F024FB0130EBD10C233360304600F07F
:10114C00D6FB002070BD00BFA00000209C0000203A
:10115C00936810B4013B002B936008DA9469A342A6
:10116C0002DBCBB20A2B02D110BCFFF7ABBC13686D
:10117C00581C10601970C8B210BC7047F8B5064600
:10118C000F461446D518AC4208D03A4614F8011B49
:10119C003046FFF7DDFF431CF5D100E00020F8BD21
:1011AC002DE9F04F9DB00C4617460393064618B137
:1011BC0083690BB9FFF738FE7F4B9C4201D17468F1
:1011CC0008E07E4B9C4201D1B46803E07C4B9C420E
:1011DC0008BFF468A38918070CD5236953B1002301
:1011EC00099320238DF8293030238DF82A30DFF82D
:1011FC00D4B144E021463046FFF7B8FC0028EED0CD
:10120C004FF0FF30D5E0039A111D12680391002AAC
:10121C0080F28C80524243F002000792049098F8BE
:10122C0000302E2B00F08480032298F800106548C3
:10123C0000F04EFB48B14023CBEB000003FA00F06A
:10124C00049B08F101081843049098F8001006223A
:10125C005D4808F101078DF8281000F039FB0028D3
:10126C0000F09580594B002B40F08880039B07338E
:10127C0023F0070308330393099B53440993B8469F
:10128C00454615F8013B1BB9B8EB07090FD003E035
:10129C00252BF9D0A846F3E74B463A462146304673
:1012AC00FFF76CFF01307FD0099B4B44099398F8F2
:1012BC000030002B78D000234FF0FF3204930793BB
:1012CC00059206938DF853301A930127052229783D
:1012DC003F4800F0FDFA05F10108049B38B13C4A87
:1012EC004546801A07FA00F018430490EEE7D90639
:1012FC0044BF20228DF853201A0744BF2B228DF8AF
:10130C0053202A782A2A3FF47EAF079A00210A201C
:10131C00A84698F800300135303B092B03D800FB68
:10132C0002320121F4E700293FF479AF079276E706
:10133C0098F801302A2B0BD1039B08F102081A1DD7
:10134C001B680392002BB8BF4FF0FF3305936BE77C
:10135C0000231946059308F101000A25804698F8E8
:10136C0000200130303A092A03D805FB0121012362
:10137C00F4E7002B3FF458AF059155E703AB00930E
:10138C002246144B04A93046AFF3008007E003ABB0
:10139C00009322460F4B04A9304600F093F8B0F1AD
:1013AC00FF3F82467FF468AFA3895B063FF528AF09
:1013BC0009981DB0BDE8F08FBC190008DC190008B5
:1013CC00FC190008221A0008261A00080000000068
:1013DC001C1A0008891100082DE9F04791461F4698
:1013EC000A698B6806469342B8BF1346C9F80030A9
:1013FC0091F843200C46DDF8208012B10133C9F876
:10140C0000302368990642BFD9F800300233C9F87E
:10141C000030256815F0060510D104F1190A07E013
:10142C000123524639463046C04701301AD00135A7
:10143C00E368D9F800209B1A9D42F1DB94F8433005
:10144C002268003318BF012392060FD5E118302013
:10145C0081F843005A1C94F845102244023382F858
:10146C00431003E04FF0FF30BDE8F08704F1430276
:10147C0039463046C0470130F4D02268D9F80050C4
:10148C00E36802F00602042A08BF5D1B2269A36808
:10149C000CBF25EAE57500259342C4BF9B1AED18D5
:1014AC004FF000091A344D4509D001232246394624
:1014BC003046C0470130D5D009F10109F3E70020CF
:1014CC00BDE8F0872DE9F04317460A7E85B06E2AF9
:1014DC00984606460C460C9B01F1430E00F0AE807C
:1014EC0011D8632A22D009D8002A00F0BB80582AD0
:1014FC0040F0CA8081F84520834955E0642A1ED00B
:10150C00692A1CD0C0E0732A00F0B08009D86F2A79
:10151C002ED0702A40F0B8800A6842F020020A608F
:10152C003EE0752A24D0782A3AD0ADE01A6801F151
:10153C004205111D1960136884F84230A8E0216837
:10154C001A6811F0800F02D0111D196008E011F01B
:10155C00400F02F10401196002D0B2F9003000E032
:10156C001368002B3CDA2D225B4284F8432037E0D1
:10157C0021681A6811F0800F02D0111D196007E064
:10158C0011F0400F02F10401196001D0138800E042
:10159C001368227E5C496F2A14BF0A2208221BE0C2
:1015AC0078225A4984F845202268186812F0800F76
:1015BC0000F104051D6003D1550601D5038800E038
:1015CC000368D00744BF42F0200222601BB9226896
:1015DC0022F0200222601022002084F8430001E057
:1015EC0049490A226568002DA56008DB206820F0B7
:1015FC00040020602BB9002D7DD175460CE0002B2A
:10160C0079D07546B3FBF2F002FB1033CB5C05F8D6
:10161C00013D03460028F5D1082A0BD12368DA07CF
:10162C0008D5236962689A42DEBF302305F8013C75
:10163C0005F1FF35C5EB0E0323612EE008681A682F
:10164C0010F0800F496903D0101D1860136808E072
:10165C0010F0400F02F104001860136801D01980DB
:10166C0000E0196000232361754616E01A68111D0D
:10167C001960156800216268284600F029F908B144
:10168C00401B6060636804E004F1420584F842206A
:10169C0001232361002384F84330CDF800803B46BE
:1016AC0003AA21463046FFF797FE013002D14FF0D6
:1016BC00FF3026E023692A4639463046C0470130C0
:1016CC00F5D023689B0710D5002504F1190907E014
:1016DC0001234A4639463046C0470130E7D0013530
:1016EC00E368039A9B1A9D42F2DBE068039B9842E5
:1016FC00B8BF184605E00B7804F1420584F8423077
:10170C008AE705B0BDE8F0832D1A00083E1A0008E0
:10171C0070B50D461446064618B183690BB9FFF730
:10172C0083FB134B9C4201D1746808E0114B9C4223
:10173C0001D1B46803E0104B9C4208BFF468A36865
:10174C00013B002BA3600CDAA269934202DBEBB2E3
:10175C000A2B06D1224629463046BDE87040FFF7D9
:10176C00B1B92368E8B25A1C22601D7070BD00BF6D
:10177C00BC190008DC190008FC19000838B5064C27
:10178C00002305460846236000F0ECF8431C02D108
:10179C00236803B12B6038BDF800002010B50C464F
:1017AC00B1F90E1000F0A4F80028ABBF636DA3894B
:1017BC001B1823F48053ACBF6365A38110BD2DE9C6
:1017CC00F0411F468B890546DB050C46164605D5B0
:1017DC0002230022B1F90E1000F068F8A3893246FA
:1017EC0023F48053A381B4F90E103B462846BDE880
:1017FC00F04100F017B810B50C46B1F90E1000F01E
:10180C0055F8431CA38915BF606523F4805343F43A
:10181C008053A38118BFA38110BDB1F90E1000F045
:10182C0013B8000038B5074C05460846114600228F
:10183C0022601A46FEF734FF431C02D1236803B121
:10184C002B6038BDF800002038B5064C0023054647
:10185C000846236000F05EF8431C02D1236803B1F4
:10186C002B6038BDF800002038B5074C0023054626
:10187C0008461146236000F055F8431C02D123683A
:10188C0003B12B6038BD00BFF800002038B5064C02
:10189C00002305460846236000F04CF8431C02D197
:1018AC00236803B12B6038BDF800002038B5074C15
:1018BC00054608461146002222601A4600F042F8FE
:1018CC00431C02D1236803B12B6038BDF800002003
:1018DC0010B5C9B202449042034605D01C780130C1
:1018EC008C42F8D1184610BD002010BD70477047CF
:1018FC0038B5074C054608461146002222601A46A8
:10190C0000F028F8431C02D1236803B12B6038BDCA
:10191C00F8000020024B58221A604FF0FF3070473D
:10192C00F8000020024B58221A604FF0FF3070472D
:10193C00F8000020024B58221A600020704700BFAC
:10194C00F8000020024B58221A604FF0FF3070470D
:10195C00F8000020024B58221A604FF0FF307047FD
:10196C00F8000020044B0246196809B903491960B4
:10197C00186802441A607047A4000020FC00002084
:10198C00F8B500BFF8BC08BC9E467047F8B500BF60
:08199C00F8BC08BC9E46704730
:1019A40068656C6C6F20776F726C640025640A0044
:1019B40043000000140000200000000000000000AC
:1019C4000000000000000000000000000000000013
:1019D4000000000000000000000000000000000003
:1019E40000000000000000000000000000000000F3
:1019F40000000000000000000000000000000000E3
:101A040000000000000000000000000000000000D2
:101A14000000000000000000232D302B2000686C23
:101A24004C006566674546470030313233343536FD
:101A34003738394142434445460030313233343536
:0C1A440036373839616263646566000063
:041A50003101000858
:041A54000D01000878
:101A58000204060800000000010203040102030456
:101A68000607080900000000BC190008DC19000876
:101A7800FC19000800000000000000000000000041
:101A880000000000B4190008000000000000000079
:101A9800000000000000000000000000000000003E
:101AA800000000000000000000000000000000002E
:101AB800000000000000000000000000000000001E
:081AC8000000000014000020E2
:040000050800016985
:00000001FF
