:020000040800F2
:1000000000500020C50500080B0600080D0600087A
:100010000F06000811060008130600080000000083
:1000200000000000000000000000000015060008AD
:100030001706000800000000190600082104000847
:100040001F060008210600082306000825060008F0
:1000500027060008290600082B0600082D060008C0
:100060002F0600083106000869050008350600085B
:1000700037060008390600083B0600083D06000860
:100080003F06000841060008430600084506000830
:1000900047060008490600084B0600081905000835
:1000A0004F060008510600085306000855060008D0
:1000B00057060008590600085B0600085D060008A0
:1000C0005F06000861060008630600086506000870
:1000D00067060008690600086B0600086D06000840
:1000E00041050008710600087306000810B5054CAC
:1000F000237833B9044B13B10448AFF300800123D4
:10010000237010BD6C0000200000000028080008CB
:10011000084B10B51BB108490848AFF300800848E8
:10012000036803B910BD074B002BFBD0BDE810409E
:10013000184700BF000000007000002028080008D9
:100140006C00002000000000154B002B08BF134B73
:100150009D46A3F5803A00218B460F461348144A6A
:10016000121A00F047FB0F4B002B00D098470E4BA4
:10017000002B00D098470020002104000D000D48FE
:10018000002802D00C48AFF3008000F00DFB2000E7
:10019000290000F0FBF900F0F3FA00BF00000800AE
:1001A0000050002000000000000000006C00002053
:1001B00088000020000000000000000040F0BF6048
:1001C000024B40F40030D860704700BF00ED00E003
:1001D000C3785BB9037801215A09164803F01F035D
:1001E000203201FA03F340F82230704730B4124B4A
:1001F0008278D9684478C9430F23C1F30221C1F141
:100200000405CB40AC401340027823431B0102F1AC
:100210006042DBB202F5614282F8003303780122CA
:1002200003F01F0003495B09824041F8232030BCE2
:10023000704700BF00E100E000ED00E08379002B93
:100240002BD010B41F4B01681A6822EA01021A6011
:100250005A68016822EA01025A600279016802F1D3
:10026000804202F582321468214311609A68016865
:1002700022EA01029A60DA68016822EA0102DA6081
:100280004279102A14D002F1804303F582330268C8
:1002900019680A431A6010BC70470379016803F1BA
:1002A000804303F582331A6822EA01021A6070471C
:1002B000996802680A439A600268D9680A43DA605A
:1002C00010BC704700040140054B1A685B6903408D
:1002D00004D0024214BF0120002070471846704726
:1002E00000040140014B5861704700BF0004014009
:1002F000CB782DE9F04103F00F06DB0648BF8B7881
:100300000C8848BF1E4314F0FF0F26D00568002359
:1003100001274FF00F0803E00133082B1BD00C8896
:1003200007FA03F232EA0404F6D19C0091F803E0E4
:1003300008FA04FC25EA0C0506FA04F4BEF1280FBD
:1003400045EA040538D0BEF1480F03F1010308BFA8
:100350000261082BE3D105600C88FF2C2AD945687F
:10036000002301274FF00F0C03E00133082B20D0AE
:100370000C8803F1080207FA02F232EA0404F4D10D
:1003800091F803E09C00BEF1280F04BF426191F890
:1003900003E00CFA04F8BEF1480F03F1010325EA6B
:1003A000080506FA04F408BF0261082B45EA0405B3
:1003B000DED14560BDE8F0814261ADE70161704783
:1003C0004161704710B401F0FC0303F1804303F571
:1003D000803301F003019C6889000F228A4024EADF
:1003E00002029A609A6888401043986010BC704777
:1003F00029B9054A936923EA000090617047024BCE
:100400009A6910439861704700100240034B6FF0E7
:100410007F41072259601A60704700BF10E000E07A
:10042000024A136801331360704700BF00000020C8
:1004300010B5012182B00820FFF7DAFF0422032360
:1004400010240DEB020105488DF80740ADF804209B
:100450008DF80630FFF74CFF02B010BD000C0140D4
:1004600070B5012182B01520FFF7C2FF02AC144E17
:10047000102324F8043D4825214630468DF80750C6
:10048000FFF736FF304621464FF48073ADF8043055
:100490008DF80750FFF72CFF4FF400532146094811
:1004A000ADF804308DF80750FFF722FF0821002037
:1004B000FFF788FF0D210220FFF784FF02B070BD17
:1004C000000801400010014010B54FF4E06082B018
:1004D000FFF774FE012401A80A238DF804308DF87B
:1004E00006408DF80740FFF773FE172201A800238E
:1004F0008DF804208DF806308DF80740FFF768FE70
:10050000282301A88DF806408DF807408DF80430A7
:10051000FFF75EFE02B010BD08B54FF48070FFF724
:10052000D3FE00B908BD4FF48070FFF7DBFEBDE8D5
:10053000084004210148FFF741BF00BF000C014003
:1005400008B54FF40050FFF7BFFE00B908BD4FF4E7
:100550000050FFF7C7FEBDE8084004210148FFF73F
:100560002FBF00BF000C014008B51020FFF7ACFE04
:1005700000B908BD1020FFF7B5FEBDE80840042112
:100580000148FFF71DBF00BF000C014042F21014EC
:1005900000B583B000F072F8FFF74AFFFFF760FF85
:1005A00000210C22012368468DF804108DF80520E7
:1005B0008DF806300094FFF741FEFFF785FFFFF747
:1005C00025FFFEE70649074A074B9A42BEBF51F88E
:1005D000040B42F8040BF8E704488047044800473E
:1005E00034080008000000206C0000207D06000890
:1005F000490100081F49204A002301E041F8043B5B
:100600009142FBD3FFF7C2FFFEE7FEE7FEE7FEE7FE
:10061000FEE7FEE7FEE7FEE7FEE7FEE7FEE7FEE7B2
:10062000FEE7FEE7FEE7FEE7FEE7FEE7FEE7FEE7A2
:10063000FEE7FEE7FEE7FEE7FEE7FEE7FEE7FEE792
:10064000FEE7FEE7FEE7FEE7FEE7FEE7FEE7FEE782
:10065000FEE7FEE7FEE7FEE7FEE7FEE7FEE7FEE772
:10066000FEE7FEE7FEE7FEE7FEE7FEE7FEE7FEE762
:10067000FEE7FEE76C0000208800002030B43C4B11
:100680003C49186882B040F0010018605D680020A5
:100690002940596019684FF41F0421F0847121F436
:1006A0008031196019681A4621F48021196059684F
:1006B00021F4FE0159609C6000900190196841F49A
:1006C0008031196003E0009BB3F5A06F09D0136877
:1006D00003F400330193009B01330093019B002B33
:1006E000F1D0234B1B6813F4003318BF012301938F
:1006F000019B012B06D0204B4FF000629A6002B0A4
:1007000030BC70471D4A1A4B1068194640F0100063
:100710001060106820F003001060106840F00200C4
:1007200010605A685A605A685A605A6842F4806287
:100730005A605A6822F47C125A605A6842F4E812ED
:100740005A601A6842F080721A600B68084A9B016E
:10075000FBD51146536823F003035360536843F0FD
:10076000020353604B6803F00C03082BFAD1C2E775
:10077000001002400000FFF800ED00E00020024001
:1007800008B5074B044613B10021AFF30080054BB9
:100790001868836A03B19847204600F033F800BF19
:1007A00000000000240800080E4B70B51E460E4CD9
:1007B0000025E41AA410A54204D056F82530984725
:1007C0000135F8E700F020F8084B094C1E46E41A02
:1007D000A4100025A54204D056F8253098470135CD
:1007E000F8E770BD64000020640000206400002071
:1007F0006800002003460244934202D003F8011B24
:10080000FAE77047FEE70000F8B500BFF8BC08BC87
:100810009E467047F8B500BFF8BC08BC9E467047BE
:0C08200043000000040000200000000065
:08082C001CF9FF7F0100000030
:1008340001000000000000000000000000000000B3
:1008440000000000000000000000000000000000A4
:100854000000000020080008000000000000000064
:100864000000000000000000000000000000000084
:100874000000000000000000000000000000000074
:100884000000000000000000000000000000000064
:0C0894000000000011010008ED00000849
:0400000508000000EF
:00000001FF
