:020000040800F2
:1000000000500020FD0C0008430D0008450D0008BD
:10001000470D0008490D00084B0D000800000000C6
:100020000000000000000000000000004D0D00086E
:100030004F0D000800000000510D0008530D00088E
:10004000570D0008590D00085B0D00085D0D0008F4
:100050005F0D0008610D0008630D0008650D0008C4
:10006000670D0008690D00086B0D00086D0D000894
:100070006F0D0008710D0008730D0008750D000864
:10008000770D0008790D00087B0D00087D0D000834
:100090007F0D0008810D0008830D0008850D000804
:1000A000870D0008890D00088B0D00088D0D0008D4
:1000B0008F0D0008910D0008930D0008950D0008A4
:1000C000970D0008990D00089B0D00089D0D000874
:1000D0009F0D0008A10D0008A30D0008A50D000844
:1000E000A70D0008A90D0008AB0D000810B5054CC0
:1000F000237833B9044B13B10448AFF300800123D4
:10010000237010BD84000020000000003417000898
:10011000084B10B51BB108490848AFF300800848E8
:10012000036803B910BD074B002BFBD0BDE810409E
:10013000184700BF000000008800002034170008A6
:100140008400002000000000154B002B08BF134B5B
:100150009D46A3F5803A00218B460F461348144A6A
:10016000121A01F0CDFA0F4B002B00D098470E4B1E
:10017000002B00D098470020002104000D000D48FE
:10018000002802D00C48AFF3008001F093FA200061
:10019000290000F08FFD01F079FA00BF000008008F
:1001A000005000200000000000000000840000203B
:1001B000A80000200000000000000000CB782DE91E
:1001C000F04103F00F06DB0648BF8B780C8848BF70
:1001D0001E4314F0FF0F26D00568002301274FF0BF
:1001E0000F0803E00133082B1BD00C8807FA03F239
:1001F00032EA0404F6D19C0091F803E008FA04FC0A
:1002000025EA0C0506FA04F4BEF1280F45EA0405B8
:1002100038D0BEF1480F03F1010308BF0261082B7B
:10022000E3D105600C88FF2C2AD9456800230127FB
:100230004FF00F0C03E00133082B20D00C8803F1A2
:10024000080207FA02F232EA0404F4D191F803E05A
:100250009C00BEF1280F04BF426191F803E00CFA44
:1002600004F8BEF1480F03F1010325EA080506FA78
:1002700004F408BF0261082B45EA0405DED145609D
:10028000BDE8F0814261ADE70161704741617047AF
:100290000AB9416170470161704700BF30B4214A1B
:1002A000536803F00C03042B06D0082B25D01BB198
:1002B0001D4A1346026001E01B4B0360194A1B4CA8
:1002C00051681B4DC1F30311615CCB404360516821
:1002D000C1F30221615C23FA01F181605168C1F32D
:1002E000C221615CCB40C3605268C2F38132AA5C18
:1002F00030BCB3FBF2F30361704753685168C3F33A
:100300008343C90303F1020307D55268920304D45F
:10031000054A02FB03F30360D0E7064A02FB03F33E
:100320000360CBE70010024000127A0004000020B6
:100330000000002000093D0029B9054A936923EA1D
:10034000000090617047024B9A69104398617047B2
:100350000010024029B9054AD36923EA0000D061A0
:100360007047024BDA691043D861704700100240B1
:1003700029B9054AD36823EA0000D0607047024BD0
:10038000DA681043D86070470010024029B9054A66
:10039000136923EA000010617047024B1A69104389
:1003A000186170470010024070B4048C1A4E24F09B
:1003B00001042404240C0484048B058CA4B224F0CE
:1003C000F304224342EA0313B0429AB2ADB21AD008
:1003D000124B984217D0B0F1804F14D0A3F5983348
:1003E000984210D003F5806398420CD003F58063E7
:1003F000984208D025F00A0545F001050D43028317
:10040000058470BC704725F0020545F001050D43D9
:100410000283058470BC7047002C01400034014009
:1004200070B4048C1C4E24F010042404240C0484A6
:10043000058B048C25F440752D052D0D45EA02220F
:1004400042EA0333B0429BB2A4B21AD0134A90429C
:1004500017D0B0F1804F14D0A2F59832904210D04E
:1004600002F5806290420CD002F58062904208D082
:1004700024F0A00444F010042143038370BC0184E1
:10048000704724F0200444F0100444EA011189B2BA
:10049000038370BC01847047002C0140003401408C
:1004A00008B57C4B984250D0B0F1804F59D07A4B70
:1004B000984260D0794B984267D0794B98426ED081
:1004C000784B984275D0784B98427CD0774B9842C5
:1004D00000F08380764B984200F08B80754B9842F9
:1004E00000F09380744B984200F09B80734B9842CD
:1004F00000F0A380724B984200F0A980714B9842A3
:1005000000F0AF80704B984200F0B7806F4B98427C
:1005100003D06F4B98420CD008BD01214FF400303E
:10052000FFF726FFBDE8084000214FF40030FFF739
:100530001FBF01214FF48020FFF71AFFBDE80840DC
:1005400000214FF48020FFF713BF01214FF400601A
:10055000FFF70EFFBDE8084000214FF40060FFF7F1
:1005600007BF01210846FFF711FFBDE80840002141
:100570000120FFF70BBF01210220FFF707FFBDE8B5
:10058000084000210220FFF701BF01210420FFF7EE
:10059000FDFEBDE8084000210420FFF7F7BE012161
:1005A0000820FFF7F3FEBDE8084000210820FFF710
:1005B000EDBE01211020FFF7E9FEBDE80840002153
:1005C0001020FFF7E3BE01212020FFF7DFFEBDE88A
:1005D000084000212020FFF7D9BE01214FF4005030
:1005E000FFF7C6FEBDE8084000214FF40050FFF7BA
:1005F000BFBE01214FF40020FFF7BAFEBDE808405E
:1006000000214FF40020FFF7B3BE01214FF480100A
:10061000FFF7AEFEBDE8084000214FF48010FFF761
:10062000A7BE01214FF40010FFF7A2FEBDE808406D
:1006300000214FF40010FFF79BBE01214020FFF77F
:10064000A5FEBDE8084000214020FFF79FBE012124
:100650008020FFF79BFEBDE8084000218020FFF7C7
:1006600095BE01214FF48070FFF790FEBDE8084071
:1006700000214FF48070FFF789BE01214FF48030D4
:10068000FFF776FEBDE8084000214FF48030FFF709
:100690006FBE00BF002C0140000400400008004075
:1006A000000C0040001000400014004000340140E5
:1006B000004C01400050014000540140001800402F
:1006C000001C004000200040004001400044014068
:1006D00000480140254A038890429BB212D002F59F
:1006E000006290420ED0B0F1804F0BD0A2F598324C
:1006F000904207D002F58062904203D002F58062FA
:10070000904203D14A8823F070031343184A904261
:1007100024D002F58062904220D0CA8823F440732E
:100720009BB2134303808A88104B82850A889842C3
:1007300002850ED00F4B98420BD003F540639842D0
:1007400007D003F58063984203D003F58063984295
:1007500001D10B7A038601238382704703808B8843
:1007600083850B880385012383827047002C014019
:100770000010004000340140038CF0B423F4807377
:100780001B041B0C0384038C848823F40073828B6A
:100790000D891B04194E1B0C22F073024F8843EA8B
:1007A000052312040D8843EA0723120CB0429BB2C2
:1007B000A4B245EA02050AD006F50066B04206D0AA
:1007C00084808583CA88F0BC8287038470474FF693
:1007D000FF3623F400624B8992B242EA03228F89EA
:1007E000164024F440548B88CA8944EA071446EA28
:1007F000032344EA02149BB2A4B2E1E7002C0140B7
:10080000F8B50D464988AA8800292B880CBF022616
:100810000026012A0CBF0227012703B32B89FFF70B
:10082000FFFD028BE98822F440621204120C02835D
:10083000038B3A469BB243EA01239BB203832B8985
:100840003146FFF7B1FD038BEA8823F00C031B044C
:100850001B0C0383038B9BB213430383F8BD2B89CB
:10086000FFF7A2FD038BE98823F00C031B041B0C8C
:100870000383038B3A469BB20B43038331462B8998
:10088000FFF7CEFD028BE98822F440621204120CBD
:100890000283038B9BB243EA01239BB20383F8BD1F
:1008A0000023038043808380C3800381438183814D
:1008B000C3817047038829B923F001031B041B0C73
:1008C000038070479BB243F001030380704700BF71
:1008D000B0F8443021B9C3F30E03A0F84430704798
:1008E0006FEA43436FEA53439BB2A0F8443070472A
:1008F000038923F070031B041B0C1943018170470B
:10090000038923F080031B041B0C038103899BB222
:1009100019430181704700BF81847047808E80B287
:10092000704700BF008F80B2704700BF808C80B2DC
:10093000704700BF038A194214BF0120002070478E
:10094000C94389B201827047F0B591B001260BA965
:100950000325182337488DF82E508DF82F300424A6
:10096000ADF82C60FFF72AFC40230BA93248ADF804
:100970002C308DF82E508DF82F40FFF71FFC31469C
:100980002046FFF7D9FC31460820FFF7D5FC314659
:1009900002202A4DFFF7DEFC0BA8FFF77FFC284C56
:1009A0000B9B2846A4FB0334FFF77AFD4FF6FF7339
:1009B000A40C013C002701A92846A4B2ADF80830D8
:1009C000ADF80440ADF80670ADF80A70FFF782FE8E
:1009D00007A8FFF765FF60220F2307A92846ADF897
:1009E0001C20ADF82230ADF81E60ADF82470FFF782
:1009F000C3FE284604A9ADF81070ADF81270ADF82A
:100A00001460ADF81670ADF81870FFF7F9FE2846BF
:100A10005021FFF76DFF28468021FFF771FF314617
:100A20002846FFF755FF31462846FFF789FF11B0EA
:100A3000F0BD00BF000C0140000801400004004070
:100A400083DE1B43000000001548002310B5012180
:100A50008384FFF72FFF01211148FFF76BFF002868
:100A6000F9D000210E48FFF725FF01210C48FFF7C0
:100A700067FF0B48FFF756FF04460948FFF74EFF94
:100A8000201A00F06BFB04A3D3E9002300F0CCFB99
:100A900000F0DCFD80B210BD728A8EE4F21F923F3E
:100AA0000004004038B501210420FFF745FC0A4945
:100AB0000A4A0B4B0888128819880243094B0A43DB
:100AC000102503241A80DD709C701946BDE838405B
:100AD0000548FFF773BB00BF160000201800002078
:100AE00014000020A40000200008014090B101285B
:100AF00012D0022812D0032812D0042812D00528C0
:100B000012D0062812D0072812D0082812D009289F
:100B100012D070477D20704728207047F42070471E
:100B2000F8207047A9207047DD207047D920704712
:100B300068207047FD207047F92070472DE9F84381
:100B4000DB4380460C4617469DB24FF00009012654
:100B5000C9F1070206FA02F2802F02EA0502D2B2B8
:100B600002BF06FA09F22A40D2B209484146FFF70D
:100B70008FFB21460648FFF787FB09F10109214653
:100B80000348FFF783FBB9F1080FE1D1BDE8F88313
:100B900000080140F8B5074C074F084E251D14F812
:100BA000013B802239883088FFF7C8FFAC42F6D17C
:100BB000F8BD00BFA0000020180000201600002093
:100BC00010B543F2040482B001210820FFF7B4FB02
:100BD0001022032301A90548ADF804408DF8072031
:100BE0008DF80630FFF7EAFA02B010BD000C0140A4
:100BF00000B5012185B00846FFF7ACFB4FF6FF7248
:100C000004A9472321F80C3D4FF080400023ADF8A4
:100C10000820ADF80630FFF75DFD01214FF0804060
:100C2000FFF748FE05B05DF804FB00BF80B110B5CA
:100C3000044600214FF08040FFF76EFE4FF08040E9
:100C4000FFF774FEB0F57A7FF8D3013CF1D110BD07
:100C5000704700BF134A38B5134D141D85FB003192
:100C6000C317C3EBA10303EB8301A0EB4100FFF724
:100C70003DFF02F8010BA2421846EFD10B4CFFF7E3
:100C800089FF21880A48FFF7FFFA0120FFF7CEFF0E
:100C900021880748FFF7FAFABDE838400120FFF73E
:100CA000C5BF00BFA0000020676666661400002074
:100CB0000008014010B5FFF7F5FEFFF781FFFFF7D1
:100CC00097FFFFF741FE08E0FFF7DEFA4FF4FA70F6
:100CD000FFF7ACFF2046FFF7BDFFFFF7B5FE431E51
:100CE0009BB2622B04464FF004010348ECD9024842
:100CF000FFF7CCFAEAE700BF000C01400649074ABB
:100D0000074B9A42BEBF51F8040B42F8040BF8E7B8
:100D100004488047044800474017000800000020AE
:100D200084000020B50D0008490100081F49204A31
:100D3000002301E041F8043B9142FBD3FFF7BAFFE7
:100D4000FEE7FEE7FEE7FEE7FEE7FEE7FEE7FEE77B
:100D5000FEE7FEE7FEE7FEE7FEE7FEE7FEE7FEE76B
:100D6000FEE7FEE7FEE7FEE7FEE7FEE7FEE7FEE75B
:100D7000FEE7FEE7FEE7FEE7FEE7FEE7FEE7FEE74B
:100D8000FEE7FEE7FEE7FEE7FEE7FEE7FEE7FEE73B
:100D9000FEE7FEE7FEE7FEE7FEE7FEE7FEE7FEE72B
:100DA000FEE7FEE7FEE7FEE7FEE7FEE78400002041
:100DB000A800002030B43C4B3C49186882B040F099
:100DC000010018605D6800202940596019684FF4DF
:100DD0001F0421F0847121F48031196019681A46CA
:100DE00021F480211960596821F4FE0159609C604A
:100DF00000900190196841F48031196003E0009B74
:100E0000B3F5A06F09D0136803F400330193009B7E
:100E100001330093019B002BF1D0234B1B6813F48B
:100E2000003318BF01230193019B012B06D0204BF7
:100E30004FF000629A6002B030BC70471D4A1A4BF6
:100E40001068194640F010001060106820F0030090
:100E50001060106840F0020010605A685A605A68CA
:100E60005A605A6842F480625A605A6822F47C12CE
:100E70005A605A6842F4E8125A601A6842F0807266
:100E80001A600B68084A9B01FBD51146536823F092
:100E900003035360536843F0020353604B6803F04D
:100EA0000C03082BFAD1C2E7001002400000FFF843
:100EB00000ED00E00020024081F0004102E000BFB0
:100EC00083F0004330B54FEA41044FEA430594EA0A
:100ED000050F08BF90EA020F1FBF54EA000C55EA45
:100EE000020C7FEA645C7FEA655C00F0E2804FEA16
:100EF0005454D4EB5555B8BF6D420CDD2C4480EAF8
:100F0000020281EA030382EA000083EA010180EA27
:100F1000020281EA0303362D88BF30BD11F0004F75
:100F20004FEA01314FF4801C4CEA113102D04042AB
:100F300061EB410113F0004F4FEA03334CEA1333E6
:100F400002D0524263EB430394EA050F00F0A780FE
:100F5000A4F10104D5F1200E0DDB02FA0EFC22FAF9
:100F600005F2801841F1000103FA0EF2801843FAED
:100F700005F359410EE0A5F120050EF1200E012ADE
:100F800003FA0EFC28BF4CF0020C43FA05F3C0181C
:100F900051EBE37101F0004507D54FF0000EDCF195
:100FA000000C7EEB00006EEB0101B1F5801F1BD33E
:100FB000B1F5001F0CD349085FEA30004FEA3C0C42
:100FC00004F101044FEA445212F5800F80F09A8038
:100FD000BCF1004F08BF5FEA500C50F1000041EB3C
:100FE000045141EA050130BD5FEA4C0C404141EB40
:100FF000010111F4801FA4F10104E9D191F0000F67
:1010000004BF01460020B1FA81F308BF2033A3F1E9
:101010000B03B3F120020CDA0C3208DD02F1140CE0
:10102000C2F10C0201FA0CF021FA02F10CE002F11B
:101030001402D8BFC2F1200C01FA02F120FA0CFC14
:10104000DCBF41EA0C019040E41AA2BF01EB04515D
:10105000294330BD6FEA04041F3C1CDA0C340EDC5B
:1010600004F11404C4F1200220FA04F001FA02F39E
:1010700040EA030021FA04F345EA030130BDC4F15C
:101080000C04C4F1200220FA02F001FA04F340EA51
:101090000300294630BD21FA04F0294630BD94F002
:1010A000000F83F4801306BF81F480110134013DE9
:1010B0004EE77FEA645C18BF7FEA655C29D094EA5A
:1010C000050F08BF90EA020F05D054EA000C04BFD8
:1010D0001946104630BD91EA030F1EBF00210020C3
:1010E00030BD5FEA545C05D14000494128BF41F062
:1010F000004130BD14F580043CBF01F5801130BDC6
:1011000001F0004545F0FE4141F470014FF0000050
:1011100030BD7FEA645C1ABF194610467FEA655C01
:101120001CBF0B46024650EA013406BF52EA0335A3
:1011300091EA030F41F4002130BD00BF90F0000F91
:1011400004BF0021704730B54FF4806404F13204CD
:101150004FF000054FF0000150E700BF90F0000F86
:1011600004BF0021704730B54FF4806404F13204AD
:1011700010F0004548BF40424FF000013EE700BF7D
:1011800042004FEAE2014FEA31014FEA02701FBF0D
:1011900012F07F4393F07F4F81F06051704792F0DF
:1011A000000F14BF93F07F4F704730B54FF4607459
:1011B00001F0004521F0004120E700BF50EA0102A4
:1011C00008BF704730B54FF000050AE050EA010251
:1011D00008BF704730B511F0004502D5404261EBC1
:1011E00041014FF4806404F132045FEA915C3FF402
:1011F000DCAE4FF003025FEADC0C18BF03325FEA9B
:10120000DC0C18BF033202EBDC02C2F1200300FA4F
:1012100003FC20FA02F001FA03FE40EA0E0021FA74
:1012200002F11444C1E600BF70B54FF0FF0C4CF45E
:10123000E06C1CEA11541DBF1CEA135594EA0C0F14
:1012400095EA0C0F00F0DEF82C4481EA030621EA4F
:101250004C5123EA4C5350EA013518BF52EA03358A
:1012600041F4801143F4801338D0A0FB02CE4FF03C
:101270000005E1FB02E506F00042E0FB03E54FF06C
:101280000006E1FB03569CF0000F18BF4EF0010E64
:10129000A4F1FF04B6F5007F64F5407404D25FEA60
:1012A0004E0E6D4146EB060642EAC62141EA555113
:1012B0004FEAC52040EA5E504FEACE2EB4F1FD0C55
:1012C00088BFBCF5E06F1ED8BEF1004F08BF5FEAD3
:1012D000500E50F1000041EB045170BD06F0004685
:1012E00046EA010140EA020081EA0301B4EB5C0432
:1012F000C2BFD4EB0C0541EA045170BD41F480112A
:101300004FF0000E013C00F3AB8014F1360FDEBF4E
:10131000002001F0004170BDC4F10004203C35DA2A
:101320000C341BDC04F11404C4F1200500FA05F3AD
:1013300020FA04F001FA05F240EA020001F000424E
:1013400021F0004110EBD37021FA04F642EB0601C4
:101350005EEA430E08BF20EAD37070BDC4F10C04EE
:10136000C4F1200500FA04F320FA05F001FA04F2B2
:1013700040EA020001F0004110EBD37041F100019E
:101380005EEA430E08BF20EAD37070BDC4F12005A9
:1013900000FA05F24EEA020E20FA04F301FA05F211
:1013A00043EA020321FA04F001F0004121FA04F2B9
:1013B00020EA020000EBD3705EEA430E08BF20EA89
:1013C000D37070BD94F0000F0FD101F000464000C3
:1013D00041EB010111F4801F08BF013CF7D041EA45
:1013E000060195F0000F18BF704703F00046520049
:1013F00043EB030313F4801F08BF013DF7D043EA1A
:101400000603704794EA0C0F0CEA135518BF95EACF
:101410000C0F0CD050EA410618BF52EA4306D1D156
:1014200081EA030101F000414FF0000070BD50EA75
:10143000410606BF1046194652EA430619D094EAFF
:101440000C0F02D150EA013613D195EA0C0F05D1E9
:1014500052EA03361CBF104619460AD181EA03013D
:1014600001F0004141F0FE4141F470014FF00000F5
:1014700070BD41F0FE4141F4780170BD70B54FF090
:10148000FF0C4CF4E06C1CEA11541DBF1CEA135510
:1014900094EA0C0F95EA0C0F00F0A7F8A4EB0504F2
:1014A00081EA030E52EA03354FEA013100F08880E9
:1014B0004FEA03334FF0805545EA131343EA1263B2
:1014C0004FEA022245EA111545EA10654FEA002667
:1014D0000EF000419D4208BF964244F1FD0404F520
:1014E000407402D25B084FEA3202B61A65EB03057C
:1014F0005B084FEA32024FF480104FF4002CB6EB39
:10150000020E75EB030E22BFB61A754640EA0C00B8
:101510005B084FEA3202B6EB020E75EB030E22BFF8
:10152000B61A754640EA5C005B084FEA3202B6EB39
:10153000020E75EB030E22BFB61A754640EA9C00F8
:101540005B084FEA3202B6EB020E75EB030E22BFC8
:10155000B61A754640EADC0055EA060E18D04FEA86
:10156000051545EA16754FEA06164FEAC30343EA26
:1015700052734FEAC2025FEA1C1CC0D111F4801FF3
:101580000BD141EA00014FF000004FF0004CB6E7EC
:1015900011F4801F04BF01430020B4F1FD0C88BF8B
:1015A000BCF5E06F3FF6AFAEB5EB030C04BFB6EB96
:1015B000020C5FEA500C50F1000041EB045170BD89
:1015C0000EF0004E4EEA113114EB5C04C2BFD4EBB6
:1015D0000C0541EA045170BD41F480114FF0000E3A
:1015E000013C90E645EA060E8DE60CEA135594EAB6
:1015F0000C0F08BF95EA0C0F3FF43BAF94EA0C0FB9
:101600000AD150EA01347FF434AF95EA0C0F7FF42D
:1016100025AF104619462CE795EA0C0F06D152EA81
:1016200003353FF4FDAE1046194622E750EA410665
:1016300018BF52EA43067FF4C5AE50EA41047FF476
:101640000DAF52EA43057FF4EBAE12E74A0011D228
:1016500012F5001211D20DD56FF47873B3EB62520C
:101660000ED44FEAC12343F0004343EA505323FA18
:1016700002F070474FF00000704750EA013002D18D
:101680004FF0FF3070474FF00000704708B5074B30
:10169000044613B10021AFF30080054B1868836A3C
:1016A00003B19847204600F033F800BF0000000067
:1016B000301700080E4B70B51E460E4C0025E41A7C
:1016C000A410A54204D056F8253098470135F8E714
:1016D00000F020F8084B094C1E46E41AA41000251F
:1016E000A54204D056F8253098470135F8E770BD7B
:1016F0007C0000207C0000207C0000208000002076
:1017000003460244934202D003F8011BFAE77047F4
:10171000FEE70000F8B500BFF8BC08BC9E46704765
:10172000F8B500BFF8BC08BC9E46704743000000F7
:081730001C0000200000000075
:0817380010EAFF7F0100000030
:101740000204060800000000010203040102030471
:101750000607080904000100020000000000000064
:101760000000000000000000000000000000000079
:101770000000000000000000000000002C1700081E
:101780000000000000000000000000000000000059
:101790000000000000000000000000000000000049
:1017A0000000000000000000000000000000000039
:1017B000000000000000000000000000110100080F
:0417C000ED00000830
:0400000508000000EF
:00000001FF
